:10000000182D002085510000815100008151000011
:1000100000000000000000000000000000000000E0
:1000200000000000000000000000000081510000FE
:10003000000000000000000081510000815100001C
:10004000815100008151000081510000251C0000F9
:10005000511800008151000081510000D949000071
:1000600051160000CD200000DD200000ED20000032
:10007000FD2000000D2100001D210000E1340000E2
:10008000F134000001350000815100008151000071
:10009000815100008151000081510000A90500003C
:1000A0008151000081510000815100008151000008
:1000B0000000000010B5064C2378002B07D1054B3B
:1000C000002B02D0044800E000BF0123237010BDC4
:1000D0001801002000000000708B000008B5084BDC
:1000E000002B03D00748084900E000BF0748036819
:1000F000002B00D108BD064B002BFBD09847F9E739
:1001000000000000708B00001C010020708B0000BC
:100110000000000010B50022002302704270002190
:100120004280017103760262C26182600824047316
:10013000C0246401C481037443748374C37403755D
:100140002A24035543758375063C0355C2840285F2
:10015000C1752B23C1540133C15410BDF0B55F46A6
:1001600056464D464446F0B497B00160BF4C236AF2
:1001700080256D022B4323620C780523E40700D50C
:1001800001E209781733890700D5FCE15378037140
:10019000002B00D0E7E1B6490C6C043323430B6419
:1001A000E1E1137D002B02D10133437701E000230D
:1001B0004377161C824603689B4613786A46137081
:1001C0001E206946AB4B98471E20AB4B98472C230B
:1001D000F35C002B3FD02B22B45C327B914612198A
:1001E000D2B2D318DBB298469A421ED2A34F0F2543
:1001F0002540337BED1802A8A1495022B847132DA2
:100200000CD8AD0002ABE85801A900234B70CB70AD
:100210008B7001330B70C0B29A4B98470134E4B233
:100220004B461B19DBB24345E1D3F48902A894493C
:100230005022924B9847132C37D8A40002ABE058B9
:1002400001A900234B70CB708B7001330B70C0B2CF
:100250008C4B984729E0347B02A889495022874B70
:100260009847132C0CD8A40002ABE05801A9002336
:100270004B70CB708B7001330B70C0B2814B9847C1
:10028000F48902A87E4950227C4B9847132C0CD845
:10029000A40002ABE05801A900234B70CB708B7017
:1002A00001330B70C0B2774B9847737D9B00DBB274
:1002B0005A461370B37DDB0172781343DBB25A46A2
:1002C00053703379342B00D94BE19B006E4AD358DD
:1002D0009F460421102002221AE0727C317C1020FB
:1002E00016E006211020012212E008211020002231
:1002F0000EE00021302000220AE000212020002210
:1003000006E000210020002202E00221102001224C
:100310001201702313400B435A469370F27D17234A
:100320003F2A00D92FE15B46DA7053461A68537EA4
:100330005BB2002BFBDBF27C738813432422B25C9C
:10034000D2001343327D92001343B27C5200134318
:1003500003435A469380327E002A20D0102863D06F
:1003600002D800283FD01AE020281BD0302816D110
:10037000F37C002B0AD0F16980311723FF2900D9C3
:1003800001E1316A8031FF2900D9FCE01723F169CE
:10039000FF2900DDF7E0316AFF2900DDF3E0534675
:1003A000196879E0F37C002B12D0F369802080007B
:1003B00084466344191C17233448814200D9E2E083
:1003C000336A6344191C17233048814200D9DAE0AC
:1003D00017232E49F069884200DDD4E0306A884254
:1003E00000DDD0E0DBE7F37C002B12D0F369802046
:1003F000000184466344191C17232548814200D913
:10040000C1E0336A6344191C17232148814200D993
:10041000B9E017231E49F069884200DDB3E0306A75
:10042000884200DDAFE0BAE7F37C002B12D0F3691D
:100430008020000284466344191C1723154881421A
:1004400000D9A0E0336A6344191C17231148814284
:1004500000D998E017230F49F069884200DD92E047
:10046000306A884200DD8EE099E7C0460004004013
:1004700000080040C92C00003D2C0000FD87000052
:10048000F4880000C12D000020880000FF03000058
:10049000FF0F0000FFFF00004B7E5BB2002BFBDB79
:1004A0005B461A7253461A68537E5BB2002BFBDB25
:1004B000B38B5A46938353461A68537E5BB2002B24
:1004C000FBDB338C5A4613842C23F25C002A04D0C5
:1004D000013AD2B2153B0F2A55D82B23F15C143BBD
:1004E0000F2950D853461868437E5BB2002BFBDBC4
:1004F000F089337B0343B0680343090519431204B1
:100500000A435B461A612A23F35C5A4613750F238C
:1005100093751533F35C002B11D0F28C17231E4911
:100520008A4230D85B469A84318D80231B01CA18D9
:1005300092B217231848824225D85B46D984174BBC
:1005400019684901E023DB001940154B5A68500136
:100550001A68D30E0343DBB20B435A4613850023BC
:1005600011E017230FE000238360C36003618376EB
:10057000C376038303770B4B18602A23D35C002BCD
:1005800000D10EE613E6181C17B03CBC9046994605
:10059000A246AB46F0BDC046FF0F000024608000BD
:1005A00020608000EC07002038B52D4B1C682368C4
:1005B0001D7EEDB2EA0735D5E27ED20732D5A27EA6
:1005C000D2072FD501221A762268537E5BB2002B08
:1005D000FBDB61698B1C6361538B9BB20B80238BAC
:1005E000013B9BB22383002B11D0637F002B19D0DA
:1005F0002268537E5BB2002BFBDB117B02230B4393
:1006000013732268537E5BB2002BFBDB0AE0237F6F
:10061000052B07D100232377013322689375201C13
:10062000A36898476B070BD5042322681376E37EF3
:100630009B0705D5A37E9B0702D5201CE36898473E
:10064000AB070BD5022322681376E37E5B0705D543
:10065000A37E5B0702D52369201C984738BDC0469E
:10066000EC07002008B5014B984708BDE1400000A9
:1006700010B584B001AC201C0C4B98470F2301939C
:100680000023636001332372A3720133E3720F20EE
:10069000211C074B984707480F210022064B98471B
:1006A0000F200021054B984704B010BD3D190000F4
:1006B0005119000065060000E51700001118000040
:1006C0007047C04608B50F200021014B984708BD70
:1006D0001118000008B50F200021014B984708BDF4
:1006E000311800007047C0467047C0467047C0468A
:1006F0007047C0467047C046024A1378013BDBB2E0
:1007000013707047CC030020002070470020704712
:1007100008B500200149024B984708BD340100206C
:100720008160000008B50022124B1A700020124BA5
:100730001A80124BA1211970813959705A809A8000
:100740001E39D9801A810E49E1235B020B600871C2
:10075000487108238B7100200A4B984700200A4BF0
:100760009847002804D0034A13780133DBB2137092
:1007700008BDC046CC03002074060020E003002022
:100780003401002081600000B95D000030B585B003
:10079000464B1B78002B00D086E0454B984700283D
:1007A00006D0444B1C88444B9847844206D17BE0DA
:1007B000404B1C88414B9847844275D0EFF310831F
:1007C0005A425341039372B6BFF35F8F00223C4BF2
:1007D0001A70039D3B4B1C78E4B262003A4BD35A2B
:1007E000002B1DD1394A138801331380304B9847B1
:1007F000002803D1354B1B88632B08D92C4B984715
:1008000000280DD0314B1A88314B9A4208D8002D60
:100810004AD001222A4B1A70BFF35F8F62B643E0C1
:1008200000222A4B1A802B4B1B78002B05D16342E8
:100830006341DBB2234A137002E063425C41E4B2DD
:1008400001221A4B1A70002D04D01D4B1A70BFF3F1
:100850005F8F62B6251C64001B4BE15A4139FF399A
:100860004B1E9941CCB2002C0DD0114B984700285B
:1008700004D0114B98470F4B188007E00F4B984757
:100880000C4B188002E000220A4B1A80AA00521971
:100890009201114B9A186B000B495B5A0F4900915A
:1008A0008120211C0E4CA04705B030BDDC03002088
:1008B000D93B0000D4030020ED3B0000DD3B0000ED
:1008C000E80000204001002044010020D80300205F
:1008D0001F0300007006002048010020E50800000A
:1008E000E53E000008B500280DD1074B1B785A42A1
:1008F00053415B00002205495852054B1A70054BC5
:100900001A70054B984708BD4001002044010020A3
:1009100070060020DC0300208D07000008B50020D1
:10092000014B984708BDC0468D07000008B5064A30
:100930001378013BDBB213701078C0B2034B9847B9
:100940000022034B1A7008BD3D010020D15D00005C
:10095000D603002008B5204B1B785AB2002A13DAC0
:10096000602213400020202B34D11B4B5B78212BBD
:100970002DD1194BDB88072B2CD1174B174A9A60C6
:1009800007229A81013025E0602213400020202BAD
:1009900020D1114B5B78202B02D0222B0ED018E0F7
:1009A0000D4BDB880020072B14D10B4B0C4A1A612E
:1009B0000A4A9A6007229A8101300BE0064B5B8855
:1009C000012119400020074B9847012002E0002038
:1009D00000E0002008BDC046880A00203401002045
:1009E00011070000E95D000082B0EFF310835A4266
:1009F0005341019372B6BFF35F8F00220A4B1A7006
:100A0000019A0A4B18880A4B1B785B0009495B5A0C
:100A1000181A002A05D00122034B1A70BFF35F8F0A
:100A200062B602B07047C046E8000020D003002044
:100A30003C010020C803002008B50020014B984766
:100A400008BDC046E909000008B5034B9847431E9E
:100A50009841C0B208BDC046E909000010B584B095
:100A6000EFF310835A425341039372B6BFF35F8F83
:100A70000022234B1A70039B224A1478E4B2224AC4
:100A80001278002A07D1214A128861002048095AA9
:100A900092B28A4209D20020002B2ED00122184B9C
:100AA0001A70BFF35F8F62B627E00021174A1180EA
:100AB00062426241D2B213490A700121124A117096
:100AC000002B05D001220E4B1A70BFF35F8F62B668
:100AD0000020104B9847002802D000200E4B98476A
:100AE000A200121994010D4A12190D4B0093022015
:100AF0000121A0235B000B4CA04704B010BDC046F1
:100B0000E80000203C0100206C060020D0030020FB
:100B1000C8030020490A0000C15F0000EC03002068
:100B2000B90B0000E53E000038B50024154B1C70E1
:100B3000154B1C70154B1C70154B1C70154B00256C
:100B40001C805C80144B1C800020144B9847144B75
:100B50001D70144B1D70144B1C805C80134B1C804B
:100B60000020134B984700280AD0064A1378013317
:100B7000DBB213701378012B02D101220D4B1A70D6
:100B800038BDC0463D010020DC0300207006002077
:100B90004001002044010020D40300208D07000004
:100BA0006C0600203C010020C8030020D003002078
:100BB0005D0A0000D603002010B582B000281FD1C6
:100BC000104B1B7858424341DBB200290ED19900EB
:100BD000CB189B010C49CB180C490091101C01212A
:100BE0001A1CA0235B000A4CA04709E089B25B00F5
:100BF000084A99520022084B1A700020074B984768
:100C000002B010BD3C010020EC030020B90B000035
:100C1000E53E0000C80300206C0600205D0A0000CD
:100C2000F0B55F4656464D46E0B482B00E1C151C2A
:100C3000284B9B4600239A46274B9946274FEFF3B4
:100C400010835A425341019372B6BFF35F8F5B46E4
:100C500052461A7001984B46198889B23B78DBB22C
:100C60005C001F4AA25A92B2002805D001241948FC
:100C70000470BFF35F8F62B6914205D3194B1B78A6
:100C8000002BDCD1281C1EE05A001548125A521ABB
:100C90002C1E944200D9141C9A00D3189B015B1897
:100CA0001149C918301C221C104B98470A4A138856
:100CB0001B199BB2138036192D1B00200C4B984733
:100CC000002DBCD1002002B01CBC91469A46A34620
:100CD000F0BDC046E8000020D00300203C01002009
:100CE000C8030020D6030020EC030020FD8700008D
:100CF0005D0A000008B5031C0A1C0020191C014BEA
:100D0000984708BD210C000082B0EFF310835A42CF
:100D10005341019372B6BFF35F8F0022154B1A70D7
:100D2000019A154B1B78DBB258001449405AA02198
:100D30004900884210D11249097800290CD1114983
:100D40000978002908D101200E49087059424B4109
:100D5000DBB209490B700020A0235B00181A002A9F
:100D600005D00122034B1A70BFF35F8F62B602B049
:100D70007047C046E80000204001002044010020E8
:100D8000DC0300207006002008B5034B9847431E83
:100D90009841C0B208BDC046090D0000F0B55F46DD
:100DA00056464D464446F0B483B08846171C274B40
:100DB0009B79092B00D15700254B9946254B9B4623
:100DC0000020C847002805D1234B1B78002BF7D102
:100DD000381C34E0EFF310835A425341019372B64A
:100DE000BFF35F8F00235A461370019B9A461B4B3B
:100DF0001C78E4B262001A4BD55AA0235B005B1B3F
:100E00003E1E9E4200D91E1CA00000198001401900
:100E1000144B18184146321C134B98476400AD1907
:100E20000F4BE5525346002B05D00122094B1A7097
:100E3000BFF35F8F62B6B044BF1BC1D1002003B0C7
:100E40003CBC90469946A246AB46F0BD340100201A
:100E5000890D0000E8000020D6030020400100209A
:100E60004401002048010020FD87000008B5031C54
:100E70000A1C0020191C014B984708BD9D0D00005D
:100E800010B5114B1B681C68A378E27812021A4354
:100E9000A2180378C018904210D24378042B0FD0C8
:100EA0008B4205D10FE04378042B0BD08B420AD044
:100EB0000378C0189042F6D3002004E0002002E03E
:100EC000002000E0002010BD7806002008B5034B8C
:100ED0005B887F201840024B984708BD880A002095
:100EE000C140000010B5164B1B780022002B24D007
:100EF000144B1B681B681C7984421ED9124A13606C
:100F00009A78DC78240214431C19A34214D25A782C
:100F1000042A09D19A78824206D1DA788A4203D12A
:100F2000094A1360012208E01A789B18A342EED305
:100F3000054A1360002200E00022101C10BDC046CC
:100F4000840600207806002088060020F0B5474679
:100F500080B4041C0021124B9847051E1CD0114B75
:100F60001B685B68A200D3589846DB689847011C51
:100F7000201C0B4B9847051E0ED00B4B1C680B4ECC
:100F80000B4F201C0521B047041E02D08078B847C3
:100F9000F7E743465B689847281C04BC9046F0BDC1
:100FA000E50E00007806002088060020810E000073
:100FB000FD3B0000F8B5051C0F4B9847002819D0E1
:100FC0000E4B1C680E4E0F4F201C0521B047041E0F
:100FD00009D08078E1782379627912021A43B84700
:100FE0000028F1D106E0084B1B685B68AD00EB58A8
:100FF0001B689847F8BDC046E50E00008806002033
:10100000810E0000553C00007806002008B5014B19
:10101000984708BD2542000070B50E4B1B78002B89
:1010200011D00D4B1B681B681B79002B0BD00024C3
:101030000A4E094D201CB0470134E4B22B681B68EE
:101040001B79A342F6D80022024B1A700132044BDE
:101050001A8070BD84060020780600204D0F000025
:101060008006002038B50D4B1B78002B15D00C4B9B
:101070001B681A681279002A0FD00024084D5B689B
:10108000A200D3581B69002B00D098470134E4B26A
:101090002B681A681279A242F1D838BD8406002064
:1010A00078060020F8B5BD4B00229A811A615A617A
:1010B0001B785AB2002A00DBF6E1B84AD288002039
:1010C000002A00D0F4E1F8E11F210B407BD1B349A5
:1010D000497806290BD008296DD0002973D1022A3E
:1010E00000D08EE1AE480231AE4B9847E4E1AB4B05
:1010F0005B881A0A022A10D0D1B2022902D8012A2A
:1011000005D048E1032A2AD00F2A1CD043E1A64B80
:1011100018680178A34B984744E0DBB2A24A1268F2
:10112000527C9A4200D86CE19F4A5268DB00985882
:101130008378C178090219439A4B9847974B9B686B
:1011400002225A702EE0984B9868002800D158E18E
:101150008378C17809021943924B984722E0FF2215
:101160001340012B0CD0002B05D0022B00D048E1FE
:101170008E4C0F2106E08E4804218A4B984711E0DF
:101180008C4C09218C4A0023E05C508001330232F0
:10119000D8B28842F8D3490002318748017089B239
:1011A000804B98477D4BDA889B89934200D883E136
:1011B0007A4B9A8180E1012A00D022E17F48012107
:1011C000784B984778E1012B27D1744949780A294F
:1011D00023D1012A00D014E1784B1B78002B00D1D9
:1011E0000FE16E4B1C79764B1D682B681B79A3426F
:1011F00000D806E1201C0021724B9847002800D13E
:10120000FFE06B68A400E358DB6898476E4B1870EA
:10121000181C0121634B98474EE1022B00D0F0E0EF
:101220005E4B5B780020002B00D0E8E0022A00D063
:10123000E7E05A4B1879654B9847654B1880181CA6
:101240000221584B984737E11F22134062D1534A7D
:101250005278032A00D1CFE0D1B2032902D8012A63
:101260000ED057E0052A02D0092A19D052E04B4B84
:10127000DB88002B00D0C4E0564A484B1A611BE1C2
:10128000464BDB88002B00D0BBE0444B5B88012B36
:1012900000D0B6E0424A138802218B4313800BE151
:1012A0003E4BDB88002B00D0ABE04B4B984700282F
:1012B00000D1A6E0394B9A783B4B1B685B7C9A4285
:1012C00000DD9EE0454B9847344B9B783B4A1370BA
:1012D000002B00D1F0E0424A94466344DB00324ADE
:1012E0005268D318364A13601B681B79002B00D153
:1012F000E2E000243B4D161C201C0021A8470028DA
:1013000000D17EE00134E4B233681B681B79A3424C
:10131000F2D8D1E0012B18D1204A52780B2A14D1EF
:101320001E4BDB88002B6CD1244B1B78002B68D024
:101330001A4B1D795C88281C2B4B9847002860D0DD
:10134000E1B2281C274B984759E0022B59D1134B87
:101350005B78012B02D0032B0DD04FE00F4BDB88C5
:10136000002B4ED10D4B5B88002B4AD10B4B1879CB
:101370001E4B984743E0094BDB88002B41D1074BBC
:101380005B88002B3DD1054C2079194B984720797B
:10139000184B984733E0002031E0C046880A00200F
:1013A000800600203941000034000020A800002001
:1013B000E4000020B8000020C400002084060020C3
:1013C00078060020E50E00007C0600205D3D000050
:1013D0007E060020CD0E0000D14000001910000054
:1013E000FFFFFF1FB50F00004D0F0000A13E0000E2
:1013F0009D3B0000713D0000002000E0002000281F
:101400005BD12E4B1B781F221340012B20D12C4B7C
:101410001B78002B1CD0294B1C792A4B1D682B688C
:101420001B79A34214D9201C0021274B9847002880
:101430000ED06B68A200D558EB689847011C201CA1
:10144000214B9847002803D0AB689847002834D137
:101450001A4B1B781F2213400020022B2DD1184B52
:101460001B78002B29D0174B1B681A681279002AA9
:1014700018D00024144E134F5B68A200D558EB68B7
:101480009847011C201CB047002816D0AB6898472D
:10149000002812D10134E4B23B681A681279A242E2
:1014A000EAD80AE0002008E060221A42A9D1CBE67F
:1014B00060211942A5D107E60120F8BD880A002065
:1014C0008406002078060020E50E00000C4B1B6807
:1014D000002B10D1EFF31083002B09D172B6BFF3AC
:1014E0005F8F0022074B1A700132074B1A7002E01F
:1014F0000022054B1A70024A1368013313607047CB
:101500008C060020E800002090060020084B1A6896
:10151000013A1A601B68002B09D1064B1B78002B7F
:1015200005D00122044B1A70BFF35F8F62B670477B
:101530008C06002090060020E8000020F0B583B063
:1015400001AC012565700027A77025703E20211C85
:10155000064EB0478022D205054B9A612770657010
:101560000F20211CB04703B0F0BDC046C9190000D0
:101570008044004100238360036041600020704785
:1015800008600A4B1A69002A02D1196104E01A1C8A
:101590009368002BFBD19160054B1B68DB0503D4DE
:1015A00080225200024B1A6000207047EC0000209D
:1015B00000E100E008B5012907D100780731084BA8
:1015C0009847084B5861002308E01723002905D1EC
:1015D0000078034B9847034B58610023181C08BD43
:1015E0008D1600000004004208B5031C012904D137
:1015F00000780731074B984705E00020002908D103
:101600001878044B9847044B9B681840431E984138
:10161000C0B208BD8D160000EC00002008B50129FD
:1016200004D100780731084B984705E017230029BB
:1016300007D10078044B9847044AD3681843D06018
:101640000023181C08BDC0468D160000EC000020C9
:1016500010B50B4B1C690B498A69986802439A6064
:10166000094B8B61002C05D0206863689847A468FB
:10167000002CF9D1024BD9689A688A439A6010BD50
:10168000EC00002000040042FFFF0F0F072804D8E1
:10169000081801218140081C04E0081808300121C5
:1016A0008140081C7047C046064A116A02230B435A
:1016B00013620122044B1A70191C0B781342FCD1DF
:1016C0007047C0460004004000040042012303703C
:1016D000002343708370C3707047C046F0B583B079
:1016E000061C0D1C294B9847294B1B68DA0747D469
:1016F00002E01A4210D100E00024254B19680122B3
:10170000A2400A431A601A79013A1A71214B98478C
:101710001420FF2C06D137E05B080134E4B20C2C16
:10172000E7D129E034706B78022B0AD001A9EB785D
:101730000B70E71DFFB2381C174B9847381C174B2E
:1017400098476A781206C0239B041A40A8780004C0
:10175000FE21C903031C0B401A43101C2A78920671
:10176000C0210905131C0B40021C1A430F231C4007
:1017700014437460002007E0064B9847142003E0F0
:101780005B0801240122B4E703B0F0BDCD140000D2
:10179000EC0000200D150000C92C00003D2C0000BD
:1017A00010B5054BDC6800780821044B98472040B1
:1017B000431E9841C0B210BD000400428D160000C7
:1017C0001F231940037801331B02F82252011340F2
:1017D0001943034B198142685A6000207047C04684
:1017E000000400421723002A0DD18B00074A9B58A2
:1017F000002B03D189008850002304E0834201D0EC
:101800001D2300E00023181C7047C046F807002085
:101810001723002907D100221F2800D8034A0123DB
:101820008340D3600023181C7047C0460018004056
:101830001723002907D100221F2800D8034A0123BB
:10184000834093600023181C7047C0460018004076
:1018500070B50022154B1A7000231F25144E134C2F
:101860001F2B19D90FE0002100E012490A619B00EB
:101870009B59002B00D0984723780133DBB22370AB
:101880000F2BEDD911E0291C194001228A400021BB
:1018900009691142E7D1EFE7291C194001228A406A
:1018A000044909691142E0D1E6E770BDF50700205F
:1018B000F807002000180040044A117802230B4367
:1018C000137053785BB2002BFBDB704700180040AD
:1018D00000B583B0124A916940230B43936101A97B
:1018E00000230B7005200F4B984705200E4B98479F
:1018F0000E4A117801230B43137053785BB2002B0F
:10190000FBDB0B4B191C4031002204C38B42FCD182
:101910001022084B1A60084B984703B000BDC04620
:1019200000040040C92C00003D2C000000180040BD
:10193000F807002000E100E0B91800000023036070
:10194000436001220272427283720233C372704793
:10195000F0B583B0051C0C1C01A900234B70CB70A3
:1019600023790B70237A8B702078154B98470026CB
:101970001F2D00D8134E07222A409200E07AA37A46
:10198000002B01D008231843EB089B00F31899693A
:1019900090400F279740B9430A1C02439A61637A2B
:1019A000002B06D073690122AA40151C1D437561E6
:1019B00004E073690122AA409343736103B0F0BD50
:1019C000C12D00000018004000B583B001AB80229B
:1019D0001A700A785A704A789A708A78DA70191CE4
:1019E000014B984703B000BDC12D000001680822DB
:1019F000054B1A600268937A5BB2002BFBDB0A8806
:101A0000022313430B80704700E100E010B501682A
:101A100008248023054AD4500268937A5BB2002BD5
:101A2000FBDB0B88022293430B8010BD00E100E03A
:101A300038B5041C0568074B98470023A382E3824E
:101A40002268937A5BB2002BFBDB2A8801231343C5
:101A50002B8038BD0D1A000010B5CB88C2889B1AA8
:101A60009A060B795C044B799B0523438C782403FD
:101A7000234313430279002A05D1CA78002A02D0F1
:101A8000802252021343487880010A781043184399
:101A900010BDC04610B58C0EC388E318D3808B01EF
:101AA0001B0F53718B02DB0E13710379002B03D0D4
:101AB000CB03DB0E937005E00B041B0F9370CB037D
:101AC000DB0FD3700B059B0E53703F231940117031
:101AD00010BDC04610B50468034B9847A37A5BB2AB
:101AE000002BFBDB206110BD591A000010B50A1C49
:101AF00003684179002906D1054959800468A17A13
:101B000049B20029FBDB1969024B984710BDC0465A
:101B10000080FFFF951A000070B504681723012AA2
:101B20000DD8161C0D1C074B9847A37A5BB2002BEF
:101B3000FBDBF200A418A0612B7A23770023181C8A
:101B400070BDC046591A000030B583B0051C141C86
:101B500001601C4A916920230B43936101A9022370
:101B60000B700420184B98470420184B9847281CEA
:101B7000174B984723792B71E3786B71E388EB80DF
:101B8000144B1D602A6823882179002902D008217E
:101B90000B4301E048210B43A178002901D08021AB
:101BA0000B431380E378002B04D051888023DB01A2
:101BB0000B435380211C0831281C0022064B9847F8
:101BC00003B030BD00040040C92C00003D2C0000D3
:101BD000311A000038080020191B0000022A01D920
:101BE00017200AE0931C9B001950818A012393401F
:101BF0001A1C0A4392B282820020704710B5026814
:101C0000022902D18023D37104E001238B400124F7
:101C10002340D371C28A01238B40191C114389B21E
:101C2000C18210BD10B50D4B1A681468D38A918A11
:101C30001940237AE0790340D80906D04B0701D533
:101C4000136998478023237207E0DB0705D5CB078C
:101C500001D5936898470123237210BD38080020EE
:101C600010B54908402481420CD30023091A0133DE
:101C70009BB28842FAD9013B9BB24024FF2B01D88A
:101C800013800024201C10BDF0B55F4656464D461B
:101C90004446F0B489B01C1C12AB1B78061C5E4392
:101CA00040258E4200D9C7E0251C07920C1C021C5F
:101CB000002D51D1181C00210023634DA8478346F5
:101CC000261C0027002300240293039400220023F3
:101CD0003F2020218C461F39009601972024644222
:101CE000041903D40D1CA540A84604E06446241A38
:101CF0000D1CE540A8460C1C8440A146141C1D1C6C
:101D0000A4185D41221C2B1C5E4647463E4203D070
:101D10000E1C2643321C2B1C019C9C4210D802D165
:101D2000009C94420CD8009C019D121BAB414D4677
:101D3000029E039F35433C1C464634430295039460
:101D40000138CBD20022012302980399121A8B4149
:101D5000110C1B0419436CE00021012D69D1610FA6
:101D60000F1CE1008846181C00210023364CA047B8
:101D7000041C0D1C00239C4620339B460126634611
:101D80000593B9466B461B7D069300239C460020B5
:101D900000213F220094019520235B42D31803D4F5
:101DA000341C9C40231C04E05B469B1A341CDC4022
:101DB000231C371C9740041C0D1C24184D41201C6B
:101DC000291C0290039144463C40A2464C462340C5
:101DD0005446234305D0029B039C1D1C3543281CFD
:101DE000211C019B8B420AD802D1009B834206D85A
:101DF000009B019CC01AA14163463B439C46013AAB
:101E0000CAD2009C019D62460599531ADB080F4A0D
:101E1000934208D9069A0132D2B206920A1C0132C4
:101E20000592082AAED14025069A082A04D051030B
:101E30001943079B19800025281C09B03CBC90461B
:101E40009946A246AB46F0BD4D660000FF1F00005C
:101E500010B582B0041C0E4B1B78002B01D000295A
:101E60000DD001A90C7013200A4B984713200A4B80
:101E70009847074B5C7001221A70002006E0044B63
:101E80005B78834201D01D2000E0002002B010BD2D
:101E900094060020C92C00003D2C0000444B9842C1
:101EA00033D006D8434B98420DD0434B98421BD0B9
:101EB0006FE0424B98424AD0414B984258D0414B38
:101EC000984266D132E0012906D0002963D0022968
:101ED00006D0032906D001E03B4867E0002065E01A
:101EE0003A4863E03A4861E0012906D0002954D01D
:101EF000022906D0032906D001E0364856E000202A
:101F000054E0354852E0354850E0012906D0002918
:101F100045D0022906D0032906D001E0304845E02B
:101F2000002043E02F4841E02F483FE0012906D040
:101F3000002936D0022906D0032906D001E02B481B
:101F400034E0002032E02A4830E02A482EE001291F
:101F500006D0002927D0022906D0032906D001E0A7
:101F6000254823E0002021E024481FE024481DE00C
:101F7000012906D0002918D0022906D0032906D04D
:101F800001E0204812E0002010E01F480EE01F484A
:101F90000CE000200AE01E4808E0032006E01D488F
:101FA00004E01D4802E01D4800E01D487047C0469F
:101FB0000010004200080042000C004200180042DD
:101FC000001C00420014004203000500030006004C
:101FD000030007000300010003001E0003001F00B0
:101FE0000300090003000A0003000B0003001100B6
:101FF000030012000300130003000D0003000E0095
:1020000003000F000300170003001800030019006D
:1020100003000400030008000300100003000C008C
:102020000300160030B587B00C4B6A4632CB32C283
:1020300032CB32C2009B834206D001239A0069460C
:102040005258824203D100E00023D8B203E00133AA
:10205000062BF3D1002007B030BDC04644890000F4
:102060007047C046F0B50A4B1B78002B0CD1094FC6
:10207000094E0A4D0024DE515A1914600433182BFE
:10208000F9D10122024B1A708000024BC150F0BD01
:102090009606002098060020612000003C080020E1
:1020A00010B582B0041C684605490622054B9847C6
:1020B000201C054B98476B46185602B010BDC04611
:1020C0005C890000FD8700002520000008B5024B58
:1020D0001B680020984708BD9806002008B5024BF1
:1020E0005B680120984708BD9806002008B5024BA0
:1020F0009B680220984708BD9806002008B5024B4F
:10210000DB680320984708BD9806002008B5024BFD
:102110001B690420984708BD9806002008B5024BAB
:102120005B690520984708BD98060020F0B55F461A
:1021300056464D464446F0B491B0051C0C1C161C86
:102140002960081CB94B984722680523D20700D59F
:1021500063E122681733920700D55EE1B4490A6A49
:10216000871C1B3BBB4013430B620FA92D27F35D5C
:102170000B701430C3B20293181CAE4B98470298F0
:10218000AD4B9847F05D0021AC4B9847F37A6B71EB
:102190002423F35CAB712523F35CEB71F37E2B728C
:1021A000337F6B722B689A46181CA04B98471430EB
:1021B00000220E2306A98C4663441A80338A99466E
:1021C0008023DB01994519D004D880239B019945D0
:1021D0000AD003E1C023DB0199450AD080231B020A
:1021E000994500D1FFE0F9E0102398460F3B079393
:1021F000FDE008239846073B0793F8E033689B46C9
:10220000F368029373690393337E04932623F35C8C
:10221000059372680692002A15D080235B059A42C6
:1022200036D12723F35C002B36D1336A9846C0B2EF
:10223000834B9847011C40460E2206AB9C466244E5
:10224000804B984725E008239846002307932723CF
:10225000F35C002B0BD043460093306AB16A0E2228
:1022600006AB9C466244079B774FB84711E0336A40
:102270001F1CC0B2724B9847011C43460093381C88
:102280000E2206AB9C466244079B6F4FB84700E0A6
:102290000020031E00D0C0E0737E002B02D0B37E6E
:1022A000524693732A68069FD369002BFCD10E33E4
:1022B00006AA944663441B8852469381029B5A4661
:1022C0001343039A13433B434A461343049A1202AF
:1022D0001343059A57071F432723F35C002B01D1B3
:1022E00004331F43337F5902727E93020B43727F84
:1022F000120213432422B25C520413432522B25C1F
:1023000012041343F17A19433389FF2B04D080223E
:1023100052041743194305E0F37E002B02D08023BB
:10232000DB041F432C23F35C002B03D1474B9B782A
:102330009B0701D580231F432A68D369002BFCD15A
:10234000534659602A68D369002BFCD153461F605D
:102350000EAB80221A7000225A70DA709A70336BBA
:102360000A93736B0B93B36B0C93F36B02930D9304
:1023700000270EAEF9B2BB000AAA9858002802D175
:10238000201C334B9847431C05D03070000CC0B262
:10239000311C304B98470137042FEBD10023EB6001
:1023A0002B616B61AB61EB612B62AB626B620022F4
:1023B000EB85AB853033EA540133EA540133EA54F8
:1023C0000133EA542868194B9847041C2249234BCF
:1023D0009847A400224BE55000231EE010239846A6
:1023E0000023079303E003239846002307933368F1
:1023F0009B46F368029373690393337E0493262309
:10240000F35C059372680692002A00D11FE78023CF
:102410005B059A4200D104E73EE7181C11B03CBCB2
:1024200090469946A246AB46F0BDC0462520000026
:1024300000040040C92C00003D2C0000511E00008B
:10244000E52C0000611C0000891C000000200041F8
:102450009D1E0000C12D0000ED240000652000003D
:102460003C080020F8B5041C0D1C161C07680F4B17
:102470009847A38D9BB2002B03D00D4B98470520A6
:1024800013E0A6850A4B9847656205223223E25481
:102490002E3BBB75237A002B01D02023BB75637ABA
:1024A0000020002B01D00823BB75F8BDCD1400001F
:1024B0000D150000931C9B00C31859600123934025
:1024C0001A1C3021435C1A434254704710B517233D
:1024D000002A06D084790533002C02D0024B98479D
:1024E000031C181C10BDC04665240000F8B5800010
:1024F000604BC5582C68E369002BFCD1237EA67D78
:102500001E403123EB5C3022AF5C1F40F30722D525
:10251000EB8D9BB2002B1CD0AA6A1378DBB2511C46
:10252000A9626979012901D09BB204E051780902BE
:102530000B430232AA62DB05DB0D2385EB8D013BE9
:102540009BB2EB85002B06D1013323750133A375B4
:1025500001E001232375B30709D502232375002267
:102560003133EA54FB0702D5281CEB689847730700
:1025700060D5AB8D9BB2002B5AD0638BDBB21A07B0
:1025800002D43F22134001E037221340002B2DD00C
:102590009A0705D51A223223EA54303B63831FE0A1
:1025A0005A0705D51E223223EA542E3B638317E0D7
:1025B000DA0705D513223223EA54313B63830FE057
:1025C000DA0605D542223223EA54223B638307E030
:1025D00020221A4204D021323223EA54123B638370
:1025E0007B0727D5281C6B69984723E0238DDB05E3
:1025F000DB0DDAB2696A0A706A6A511C696269792C
:10260000012904D11B0A53706B6A01336B62AB8DD5
:10261000013B9BB2AB85002B0CD104332375002208
:102620002E33EA54BB0705D5281C2B69984701E0D7
:1026300004232375F30607D5102323752376FB06A1
:1026400002D5281CEB699847B30607D520232375CC
:1026500023763B0702D5281CAB699847330707D57B
:10266000082323752376BB0602D52B6A281C9847BE
:10267000F8BDC0463C08002008B5082803D88000F3
:102680001B4B1B589F46002031E01A4B18692EE067
:10269000194B186A8005800F184BC340181C26E0A0
:1026A000144B586923E0134B1B68022018401ED0BE
:1026B00011491022CB681A42FCD00E4B1B685B07F5
:1026C00014D500200E4B98470A4B9B681B041B0C2B
:1026D00058430CE05023084AD35C00205B0706D522
:1026E000044BD86803E08020000200E0054808BDE4
:1026F00064890000B00600200008004000127A0043
:10270000E52C0000006CDC0270B50C4C236A0178EB
:10271000857842780120024092014026B34313435A
:10272000021C2A40D2017F308343134303220A4014
:10273000120203490B401343236270BD000800409E
:10274000FFFCFFFFF0B557464E464546E0B41C4E31
:10275000B3699C46417805780779C37899464479EE
:102760008378012003409B009A46042290466246EB
:1027700043469A43131C52461A43131C0140C90096
:10278000082293430B434A460240920140218B4367
:1027900013430740FF01802293433B43793A15409E
:1027A0002D02084F3B402B4304402003064C1C40A5
:1027B0000443B4611CBC90469946A246F0BDC04695
:1027C00000080040FFF8FFFFFFEFFFFF10B5037A9E
:1027D0009B061A0C43899B059B0D1343194C6360A0
:1027E000818843881943C379827913430B43427824
:1027F000D201134323600378042B0FD1037B9B0684
:10280000028A1343191CC3891B040F4A13400B434C
:10281000A360216804230B43236011E0202B0FD118
:10282000037B9B06028A1343191CC3891B04064AB7
:1028300013400B43034A9360136804490B4313602E
:1028400010BDC046B00600200000FF0324040000B5
:10285000082803D88000254B1B589F46172044E0CA
:10286000234A116A02230B43136200203DE0204AF1
:10287000916902230B439361002036E01C4A118AC0
:1028800002230B43138200202FE0194A918A02236E
:102890000B439382002028E016490B680222134361
:1028A0000B60134B9A84191C0E32CB681A42FCD071
:1028B000104A91680E4BD96252689A6200229A843B
:1028C000191C1032CB681A42FCD00A4B1B689BB211
:1028D000074A9384002008E005494422885C0223CB
:1028E00003438B54002000E00020704788890000DB
:1028F00000080040B0060020F0B557464E46454659
:10290000E0B48CB0C222D200524B9A6052494B685C
:102910001E2293431A3A13434B6001AB1A700024F2
:102920004E4DE0B201A9A8470134252CF9D14C4CF9
:102930002368DB0447495B0E1A048869494B03404E
:1029400013438B610AA80123437083700025C5706F
:102950000371063303704571434B98470420434B82
:10296000984705AB00225D809A71DA7120211970B9
:102970005A7023689B0E3F2B00D1203B05A80372A1
:10298000072303730333C381394B4381FF3B8380A8
:10299000384B0382384B984704A800254570012323
:1029A000984683700570354B984706202F4B994603
:1029B0009847334B984701AC4346636065700533D5
:1029C0009A462370257265720120211C2D4FB8474D
:1029D00001202D4EB0476570257265720423237067
:1029E0001C3363600220211CB8470220B0474346D5
:1029F0006360657053462370257265720320211C45
:102A0000B8470320B0470720C84712491022CB68B7
:102A10001A42FCD00F4A918C80230B4393841B4AAB
:102A20000023137253729372D37201A901224A6078
:102A30004B704B7207330B700A720020114B984792
:102A40000020114B98470CB01CBC90469946A246FA
:102A5000F0BDC0460008004000400041C92C000005
:102A600024608000FFFF80FF452700005128000000
:102A7000FF01000080BBFFFFCD27000009270000F9
:102A8000912A0000B52A00006D2B000000040040D0
:102A9000064A916908230B4393610122044B1A7083
:102AA000191C0B781342FCD17047C046000400404B
:102AB000000C004070B5061C041C0D782D02054367
:102AC0004B78002B02D08023DB021D434B7A002B76
:102AD00002D080231B031D434868012818D9431ED8
:102AE000184210D1022806D90223002201325B00CD
:102AF0009842FBD800E0002212023243141C8023CB
:102B00005B031D4304E00402344380239B021D4306
:102B10000B7A002B02D080239B031D430F4A53786E
:102B20005BB2002BFBDB0E4B98470E4B1E700B4A23
:102B300053785BB2002BFBDB084B9C601A1C53786C
:102B40005BB2002BFBDB054A516880235B020B4024
:102B50001D435560044B984770BDC046000C0040B3
:102B6000CD140000080C00400D15000010B5041C29
:102B70000B4A53785BB2002BFBDB0A4B98470A4B9E
:102B80001C70074A53785BB2002BFBDB044A536886
:102B9000802149020B435360044B984710BDC04647
:102BA000000C0040CD140000040C00400D15000086
:102BB00070B5041C1A4A53785BB2002BFBDB194B2F
:102BC0009847194B1C70164A53785BB2002BFBDBFD
:102BD000134E7068C004C00E144B9847051C124B6E
:102BE0001C707668F602F60F114B1C700C4A537875
:102BF0005BB2002BFBDB0A4B9C68240AA4B20D4B92
:102C00009847002E07D1012C07D9281C211C0A4BFC
:102C10009847051C01E00134E540281C70BDC04602
:102C2000000C0040CD140000040C00407926000088
:102C3000080C00400D1500008D62000010B5041C4A
:102C4000064B9847064B1C70064A51888023DB01CF
:102C50000B435380044B984710BDC046CD14000071
:102C6000020C0040000C00400D15000010B5041CC3
:102C70000F4B98470F4B1C700F4B5A881205100FC3
:102C800059880E4A0A405A8059880D4A0A405A808B
:102C9000191C8022D2014B881342FCD10649020242
:102CA0004888064B034013434B80064B984710BDA2
:102CB000CD140000020C0040000C0040FFF0FFFFAC
:102CC000FFBFFFFF0D15000010B50C782402044370
:102CD000024B9847A4B2024B5C8010BD6D2C0000E3
:102CE000000C004010B5041C064B9847064B1C70A6
:102CF000064B5C882405240F054B9847201C054B88
:102D0000984710BDCD140000020C0040000C00409C
:102D10000D150000B12B000030B5D378002B1ED16B
:102D20001478802C04D0240680235B021C4300E02E
:102D3000002453780225AB430AD19378002B03D1AA
:102D400080239B021C4302E0C023DB021C43416042
:102D50005378013B012B12D8184B1C400FE0416007
:102D60000B041B0CA024E405234383620B0CD0242A
:102D7000240623438362D378002B18D01CE00B0475
:102D80001B0CA025ED052B43234383620B0CD025A0
:102D90002D062B4323438362D378002B0CD163038E
:102DA00005D59378012B01D1816100E04161537811
:102DB000013B012B00D8816030BDC046FFFFFBFF07
:102DC00008B5031C0A1CC1090020002904D15809B8
:102DD000C00105498C4660441F210B401E399940B3
:102DE000024B984708BDC04600440041192D000021
:102DF0007047C04608B5054B9847054B9847054BAB
:102E00009847054B9847054B984708BDF92800009F
:102E10003D150000A9160000D1180000F12D00009A
:102E2000084B98420AD0084B984205D00023074A25
:102E3000904205D1023302E0012300E00023DBB21F
:102E4000181C704700200042002400420028004265
:102E5000F8B50F1C151C1E1C0468201C134B98474A
:102E6000134B1A5C1723BA421DD98000114BC2586C
:102E70001723AA4217D3002E0AD080221203BA4089
:102E8000A3681342FCD11C37BF003D5100230AE068
:102E900080225200BA40A3681342FCD11037BF0011
:102EA000E41965600023181CF8BDC046212E0000FF
:102EB000C8890000BC89000010B5041C081C504BD8
:102EC00098470023236080004E4A82586260A372B4
:102ED0000322E272237363722372E36123626362EB
:102EE000A36223756375A375E375237663762374F4
:102EF0006374A374E3742932A3540132A3540132DE
:102F0000A3540132A3540132A3540132A354013219
:102F1000A3540132A3540132A3540132A354013209
:102F2000A3540132A3540132A3540132A3540132F9
:102F3000A3540132A3540132A3540132A3540132E9
:102F4000A3540132A3540132A3540132A3540132D9
:102F5000A3540132A3540132A3540132A3540132C9
:102F6000A3540132A3540132A3540132A3540132B9
:102F7000A3540132A3540132A3540132A3540132A9
:102F8000A3540132A3540132A3540132A354013299
:102F9000A3540132A3540132A3540132A354013289
:102FA000A3540132A3544132A354A365A367013251
:102FB000A354E365E3670132A35423661A3AA3508E
:102FC0001B32A3546366173AA3501832A354A36666
:102FD000143AA3501532A354E366113AA3501232A7
:102FE000A35423670E3AA3500F32A35463670B3ADE
:102FF000A35001210C32A1540132A35410BDC0468C
:10300000212E0000BC890000F0B55F4656464D46B3
:103010004446F0B48FB000900C1C171C081C874B62
:103020009847051C061C864A116A8000854BC358C8
:103030000B43136223681C209B0700D5DDE1236846
:103040000122134000D0D8E1AA007F495258053828
:1030500039688A4200D2D0E179688A4200D2CCE154
:10306000F9698A4200D2B3E1396A914200D9B1E1EB
:10307000796A8A4200D2AFE1B96A8A4200D2ADE1F0
:1030800098229446BC446246049261460022087825
:10309000002804D06D48805D904200DCA0E1013240
:1030A0000131082AF3D100229046802149048C4640
:1030B000B918097C012909D16549895D914200DA75
:1030C00090E1614691404046084380460132042A1F
:1030D000EED19D32BA5C002A04D080221201414612
:1030E000114388463A7B0692FA7A07923A7A511E41
:1030F0008A41920003927A7A012A02D103991143FC
:103100000391534A525D111C05923522B85C8142ED
:1031100000D871E12C22BA5C0F2A00D96CE12D2174
:103120008C46BC4461460191002108969946BB46F5
:103130000F1CA24609950CE0907C059B834200D8A9
:103140005AE1527A019B0A33019304370F2A00D9BE
:1031500052E11106F0231B051940019B1A1C1D7832
:103160002D04FF242404254002955B788024002B45
:1031700000D14C4696780823002E00D14B46D678D5
:10318000B44610266546002D00D14E468002C0256B
:103190002D0128400143107903252840014302985E
:1031A000014355796D016020284001430D1C907941
:1031B0000002C021890001400D43D0790003E021C5
:1031C000C90101400D432C4323431E430CABFE5069
:1031D000042FB1D1089E54465F46099D1B4B5B5D91
:1031E0009C46584650305A464132002301218B46B6
:1031F000802149028A460194341C6646291C1D1C04
:10320000B9460F1C01998C460178002909D09E42CD
:1032100000D8E9E0514699400D431178002906D1C4
:103220001BE01178002918D09E4200D8DEE0022968
:1032300010D10221FF3199400D430EE0212E0000F4
:1032400000040040B0890000BC890000CC89000067
:10325000C8890000594699400D43013301300232BC
:10326000082BD1D1261C64463B1C4F46A9461D1C89
:10327000654B5B5D01937B7E1B01302213403A7EE0
:1032800007210A401343181C002380214902FA1821
:10329000127D002A06D0019A9A4200DCA8E00A1C9E
:1032A0009A4010430133042BF1D1029000990B1C7A
:1032B00004333431002204C38B42FCD10023009933
:1032C0004B638B63AA00514BD1500C60A023FA5C76
:1032D000643BCA540BA9BB7A0B704D4B5B5D0093EA
:1032E000181C4C4B984700984B4B98474B4B5B5DD9
:1032F000002B29DD3D1C583597235B42DB1B9B4689
:10330000464B9A4643460093A046341C049E5B46B7
:10331000BB461F1C3378002B0BD001230AAA9370E5
:1033200000220AA9CA702A6A0A704B7028783C4B9E
:103330009847BB19013604355246125D9A42E9DCC2
:103340004446009B98465F46069B1A03079B1B0258
:1033500013434246134323600422A3681A42FCD15C
:10336000FF2323710422A3681A42FCD16B461B7B06
:1033700063710C9BE3600D9B23614B46A361294A5B
:10338000A3681342FCD1029BE3631022A3681A4294
:10339000FCD13B686363244AA3681342FCD17B6879
:1033A00023640198002825DD3D1C1C3500211F4E9B
:1033B000321C8A40A3681342FCD104CD0B1C10338D
:1033C0009B00E3185A6001318842F1DC002014E0D0
:1033D000172012E0172010E017200EE017200CE055
:1033E00017200AE0172008E0172006E0172004E065
:1033F000172002E0002000E017200FB03CBC9046F0
:103400009946A246AB46F0BDC8890000540800208A
:10341000AC890000C92C00003D2C0000CC890000C4
:10342000C12D0000400002008000040000010800DF
:1034300010B53C23C35C014CA04710BD512E0000C9
:10344000920083185960034BD358426B1343436374
:1034500000207047D489000038B5041C0D1C00689A
:10346000094B9847094B1B5C1F2213401E3A9A4098
:10347000131C074A1360AD00064BEA58A36B1343B5
:10348000A36323689A6238BD212E0000D089000012
:1034900000E100E0D4890000F0B5474680B4800028
:1034A0000D4BC7583B68DE6A7B6B1E40BB6B1E40F2
:1034B00000240A4B98464346E5582E4205D03B1956
:1034C0005B68381C98473B68DD620434302CF2D1CD
:1034D00004BC9046F0BDC04654080020D4890000CA
:1034E00008B50020014B984708BDC046993400003C
:1034F00008B50120014B984708BDC046993400002B
:1035000008B50220014B984708BDC0469934000019
:1035100010B584B0041C03A827490422274B984700
:10352000274B1B78A34245D0002C1ED003AB1B5D5C
:10353000244AD25CFF2A00D1FEE7EFF31082514209
:103540004A41019272B6BFF35F8F00211E4A11708B
:1035500001981C49CA5C0132CA54002805D00122D6
:10356000194B1A70BFF35F8F62B6154B1B78002B97
:103570001ED003AAD35C134AD25C002A00D1FEE716
:10358000EFF3108251424A41029272B6BFF35F8F4D
:1035900000210D4A117002980A49CA5C013ACA54C6
:1035A000002805D00122084B1A70BFF35F8F62B666
:1035B000034B1C7004B010BD048A0000FD8700009E
:1035C00044070020F0070020E80000200F230340FC
:1035D0005B00C00918180238830018188000014BDE
:1035E00018187047CC060020F0B557464E464546A1
:1035F000E0B489468E7973B2002B51DA301C5D4BF2
:103600009847041C0F2333409846038A9A464B463A
:103610005F88C3689C466744C7608568AF4224D012
:10362000ED1BADB2544B9D4206D91D1C181C5146D2
:10363000524B98476D1AADB2A37C00229B0706D56A
:10364000281C51464E4B984789B24A424A41510084
:10365000A37C022293431943A1746268D21949489A
:1036600041462B1C484CA0477EE0837C9B070BD532
:10367000837C0222934383744268D21941484146B5
:103680000023414CA0476FE0837C01229343837465
:103690000368002B68D00020391C321C984763E077
:1036A000301C344B9847041C0F273740BA46038A16
:1036B00098464B461F88837C5B0711D54368C268D8
:1036C000944663441D1C806841462D4B98470A1C54
:1036D0005346591E89012D4BC918281C2C4B98475D
:1036E000E368FD18E560A3689D4201D9E36030E01E
:1036F0004A469288BA422CD19D422AD05B1B9EB288
:103700001D4B9E4207D91E1C181C41461B4B984757
:10371000731A9BB205E0301C4146194B9847731A47
:103720009BB298450ED9A27C04231343A37453463D
:103730005A1E9201154BD218124851464346154C59
:10374000A04711E0626852190E485146114CA0473B
:103750000AE0A37C01229343A3742368002B03D0C7
:10376000E1680020321C98471CBC90469946A2464E
:10377000F0BDC046CD350000FF1F00007965000098
:103780009963000020090020F9480000600800202B
:10379000FD8700004949000010B50522054B1A704D
:1037A000054C201C8021054B9847201C0021044B10
:1037B000984710BD48070020200900204948000014
:1037C0007148000070B50E1C0D4C201C06210D4DDB
:1037D000A847201C0421A847201C02210A4B984717
:1037E00002200A4B98473368002B04D0084B9847B7
:1037F0003368002B01D1074B9847074B984770BDA2
:10380000200900205D4300003D4300001135000009
:10381000AD5D0000A15D0000955D000038B5134B63
:103820009B8C9B0606D41149D022CB681340D02B29
:10383000FBD104E00D491022CB681A42FCD00C4C9D
:10384000201C02210B4B9847201C04210A4DA8473D
:10385000201C0621094A0A4B9847201C0621A8472C
:103860000320084B9847084B984738BD0008004094
:10387000200900205D4300003D430000C5370000E3
:103880001D43000011350000695D000030B583B0B4
:10389000041C1E4B984780232268937201AD281C9C
:1038A0001B4B984703236B70201C291C194B98470E
:1038B000201C1949194B9847201C00210222184B43
:1038C000184DA847201C00210022174BA847201C98
:1038D00000210122154BA847201C00210222144D73
:1038E000A847201C00210022A847201C00210122FB
:1038F000A847226811890F4B0B408021C9000B4358
:10390000138100220C4B1A7003B030BD1910000057
:103910008145000091450000A00A00209549000063
:10392000713A000079430000A13D000079390000A0
:10393000C9430000FFF3FFFF4807002010B5032232
:10394000074B1A70074C201C0749084B9847084B37
:103950009A68201C00210023064CA04710BDC046D9
:103960004807002020090020A00A002095490000F7
:10397000880A0020F948000008B589794BB2002B6D
:103980000CDA0D4B1B78012B02D10C4B984712E03F
:10399000042B10D10A480B4B98470CE0064B1B78C0
:1039A000022B03D10422044B1A7004E0032B02D132
:1039B0000348044B984708BD480700203D390000E4
:1039C000200900204948000070B5204B1A88204B80
:1039D0009C89A41AA4B2002C20D11E490B88D318AC
:1039E0009BB20B801A4AD2889A4203D01A4B1B789A
:1039F000002B07D00422194B1A70194819491A4B89
:103A0000984722E0124B5B69002B0ED098470028A4
:103A10000BD000220D4B1A800D4B9C893F2C04D9F2
:103A200000220D4B1A70402402E001220A4B1A704A
:103A3000064D2B88064A9268D21809480021231C9B
:103A40000A4EB0472B88E4182C8070BD4607002032
:103A5000880A0020C80600204907002048070020E7
:103A600020090020A00A002095490000F948000024
:103A700010B50C1C2C4B1B78002B07D02B4B1B6953
:103A8000002B00D098470022274B1A702388082B60
:103A900002D0274B984745E0244A264B19781170ED
:103AA00059785170D978090298784118518059791C
:103AB0000902187941189180D97909029B795B181C
:103AC000D3801D4B9847002802D1194B984729E015
:103AD000164B1B787F2B10D90023184A1380184AE5
:103AE00013800222104B1A7016480021114A4023FD
:103AF000154CA047154B984714E00C4BDB88002B66
:103B000002D1134B98470DE000230C4A13800C4A56
:103B100013800122044B1A700A480021054A4023F1
:103B2000094CA04710BDC04648070020880A002065
:103B300099370000A00A0020A5100000C806002048
:103B4000460700202009002049490000C93900002B
:103B50003D39000008B5024B9847024B984708BD15
:103B600065100000755D000010B5074C201C042195
:103B7000064B9847201C0221054B98470120054B16
:103B80009847054B984710BD200900205D43000071
:103B90003D430000113500005D5D000010B5041CC0
:103BA0000A48211C0A4B9847201C0A4B9847837CE3
:103BB000DB070AD5837C0122934383740368002BBF
:103BC00003D0C1680120221C984710BD20090020A5
:103BD000E5470000CD35000000207047024B1B6810
:103BE000188A8004400D704720090020024B1B6892
:103BF000188A80B27047C0462009002070B582B094
:103C0000041C01AD281C0D4B9847201C0C4B9847F9
:103C10002C700023EB700B4E301C291C0A4B98476C
:103C20000F212140301C0022084B9847301C211CDA
:103C30000022074B984702B070BDC0468145000086
:103C40009D3B00002009002091450000A143000099
:103C5000A5440000F0B583B0061C0C1C151C01AF78
:103C6000381C364B98473E70082D03D8002201AB14
:103C70005A702EE0102D03D8012201AB5A7028E0B3
:103C8000202D03D8022201AB5A7022E0402D03D828
:103C9000032201AB5A701CE0802D03D8042201AB33
:103CA0005A7016E080235B009D4203D8052201ABC9
:103CB0005A700EE080239B009D4203D8062201AB80
:103CC0005A7006E000231E4A954233D8072201AB02
:103CD0005A70301C1B4B9847058203212140012953
:103CE00003D1022201ABDA700BE0022903D10322D7
:103CF00001ABDA7005E0002303291BD1042201ABDC
:103D0000DA70114801A9114B98470023002811D1FE
:103D10000D4C0F213140201C00220D4B0D4DA847AA
:103D2000201C311C00220C4DA847201C311C0122F4
:103D3000A8470123181C03B0F0BDC0468145000010
:103D4000FF030000CD350000200900209145000050
:103D5000E935000079430000C943000008B5011CA3
:103D60000148024B984708BD200900201D4800006B
:103D700010B50F2303400022032B08D8041C05486C
:103D8000211C054B9847201C044B98470122101C0E
:103D900010BDC04620090020494800009D3B00009E
:103DA00038B5344B1B78012B55D10D88324B9B898C
:103DB000324A14886219934201DA1D1BADB22E4BB0
:103DC000986800192E492A1C2E4B98472C19A4B22A
:103DD0002A4B1C80402D06D1274BDA882A4B1B88A2
:103DE0001B199A4210DC244B9C815B69002B08D084
:103DF0009847002805D105221E4B1A70234B98477F
:103E000036E0234B984733E01B4B9B89A3421BD1E1
:103E1000194B5B69002B06D10522164B1A70002046
:103E20001A4B984724E09847002805D10522114BEA
:103E30001A70164B98471BE01349104A10880B88DC
:103E4000C3180B8000231380124800210C4A402322
:103E5000114CA0470CE0022B02D1104B984707E011
:103E6000054B1B69002B00D098470022014B1A70AC
:103E700038BDC04648070020880A002046070020B9
:103E8000A00A0020FD870000C8060020713D000048
:103E90003D3900002009002049490000C9390000CF
:103EA00038B5011C0F2303400020032B13D80C1C32
:103EB000081C094B9847051C0848211C084B9847CB
:103EC000AB7C0120DB0706D5AB7C01229343AB74AE
:103ED0002B689847012038BDCD350000200900200F
:103EE00071480000F0B587B0051C03910292019360
:103EF0000F2303401E1C0024032B00D9C9E0664B8E
:103F00009847041E00D0BFE0281C644B9847071C4C
:103F1000EFF310835A425341059372B6BFF35F8F9C
:103F200000225F4B1A70059A837CDB0709D5002AB3
:103F300000D1AEE001225A4B1A70BFF35F8F62B618
:103F4000A7E0817C01230B438374002A05D0012262
:103F5000534B1A70BFF35F8F62B6029B7B60019B6D
:103F6000BB600023FB600C9B3B600123039A134062
:103F70005A00BB7C02218B43134304229343BB743E
:103F80006BB2002B40DA019B002B1DD06B469C8846
:103F9000444B9C4206D9398A1C1C181C424B98473A
:103FA000631A9CB2BA7C0023920706D5398A201C7A
:103FB0003E4B984789B24B424B415B00BA7C022191
:103FC0008A431343BB7415E0BB7C9B0705D5BB7CC0
:103FD00002229343BB7400240CE0BB7C0122934378
:103FE000BB740C9B002B51D0002000212A1C984749
:103FF00001244EE02E48311C029A231C2D4CA04770
:1040000044424441E4B244E0019B002B2FD06B4674
:104010009C88244B9C4207D9398A1C1C181C224BB3
:104020009847631A9CB205E0398A201C1F4B9847B9
:10403000631A9CB23B8A9C420FD2B97C04220A4389
:10404000BA74721E92011C4952181948311C1B4C3B
:10405000A04744424441E4B21BE01548311C029A97
:10406000231C164CA04744424441E4B211E0BB7CFF
:1040700001229343BB740C9B002B09D0002000212C
:104080002A1C9847012404E0002402E0012400E0F7
:104090000124201C07B0F0BD5D3D0000CD350000BF
:1040A000E8000020FF1F0000796500009963000010
:1040B00020090020F948000060080020494900005C
:1040C000024B1A6880231843907270472009002021
:1040D000024B1B689B7A7F20184070472009002004
:1040E00008B5124B9B8C9B0606D41049D022CB6896
:1040F0001340D02BFBD104E00C491022CB681A42AC
:10410000FCD003200A4B98470A4B1A68537B022BBA
:104110000BD005210220138903439BB21381537BEB
:10412000022B02D001390029F5D108BD000800405A
:104130001135000020090020014B986099817047DB
:10414000880A002008B5054B1A68118901230B4322
:1041500013810120024B984708BDC046200900206A
:104160001135000070B50320164B9847164C226895
:10417000138901218B431381201C0331134A144EF0
:10418000B047201C0021134AB047201C0121124ACD
:10419000B047201C0221114AB047201C0421104DB9
:1041A000A847201C0021A847201C0121A847201C4B
:1041B0000221A847201C06210A4AB047201C0621DC
:1041C000A84770BD1135000020090020693B0000A0
:1041D0001D430000553B00008D3800001D380000D5
:1041E0003D430000C537000008B50E200021084BF4
:1041F0009847084B1B6A5B0402D5074B984701E0C0
:10420000064B98470E200021054B984708BDC04635
:1042100031180000004400416541000045410000A4
:104220001118000070B586B0EFF310835A42534165
:10423000019372B6BFF35F8F0026294B1E70019D5C
:1042400005AC201C274B9847A670274E301C2749E9
:10425000221C274B9847301C264B9847264B9B8C9B
:104260009B0606D42449D022CB681340D02BFBD127
:1042700004E021491022CB681A42FCD001201F4BD8
:10428000984702AC201C1E4B98470E230293002334
:10429000636023720333E372023BA3720E2000219A
:1042A000184B98470E20211C174B984717480E2192
:1042B0000022174B98470E200021164B9847164BAB
:1042C0001B6A5B0401D5114B9847002D05D00122D4
:1042D000034B1A70BFF35F8F62B606B070BDC04665
:1042E000E8000020794F0000200900200050004124
:1042F000894F0000C549000000080040113500004A
:104300003D1900003118000051190000E94100007A
:10431000E517000011180000004400410B1C2E336B
:104320009B001A504900AA225200034BC95A835AD3
:104330000B438352002070471C8A00004900064B43
:10434000CB5A02689383AB214900425A1A43425226
:1043500002681383002070471C8A00004900054B47
:10436000CA5AAB214900435A9343435203689A8285
:10437000002070471C8A000010B58C00A41834344B
:10438000A4000419636041185931FF310878034BC8
:104390009B5C03430B70002010BDC0462C8A0000BC
:1043A00010B58B009B1834339B00C31800245C604D
:1043B00041185931FF31034B9A5C0B7893430B70D2
:1043C000002010BD2C8A000070B50F230B40C418CC
:1043D0006134FF342678324DAD5C35432570002AB8
:1043E0001FD1002B08D15C010568AC466444093438
:1043F000FF34032565703DE04CB2002C08DA5C0107
:104400000568AC4664440934FF340225657031E028
:104410005C010568AC4664440934FF3401256570CD
:1044200028E0012A1CD1002B07D102685B01D318B8
:104430000933FF330C225A7030E049B2002907DA01
:1044400002685B01D3180933FF3308225A7025E054
:1044500002685B01D3180933FF3304225A701DE050
:10446000022A07D102685B01D3180933FF331022F7
:104470005A7013E0032A11D149B2002907DA026801
:104480005B01D3180933FF3340225A7006E00268FB
:104490005B01D3180933FF3320225A70002070BD0E
:1044A0002C8A000070B50F230B40C4186134FF3410
:1044B000324DAE5C2578B5432570002A1FD1002B04
:1044C00008D15C010568AC4664440934FF34032517
:1044D00025703DE04CB2002C08DA5C010568AC4662
:1044E00064440934FF340225257031E05C0105681D
:1044F000AC4664440934FF340125257028E0012AC4
:104500001CD1002B07D102685B01D3180933FF339C
:104510000C221A7030E049B2002907DA02685B0108
:10452000D3180933FF3308221A7025E002685B01B3
:10453000D3180933FF3304221A701DE0022A07D171
:1045400002685B01D3180933FF3310221A7013E09D
:10455000032A11D149B2002907DA02685B01D31896
:104560000933FF3340221A7006E002685B01D3185A
:104570000933FF3320221A70002070BD2C8A0000FE
:1045800000230370437083700133C3707047C046CB
:10459000F0B50A780F231340D409CA78042A00D949
:1045A000F0E092008C4EB2589746026808335B01E7
:1045B0000021995400220CE15C0102689446644495
:1045C00080225200A55CE43A6D0700D001E1E4329C
:1045D000A65CE43A70252E4200D0FAE05F3DE4325A
:1045E000A5541A1C083252010468A4182F356571AD
:1045F00000688218802010718A78002A0BD05A0136
:1046000076488218546880252D062C4354605069E2
:10461000284350610AE05A017048821850684000EF
:1046200040085060506940004008506107224878B7
:104630005B016A4CE318104004075868684D284035
:104640002043586049780A4011075A692A400A43B2
:104650005A610022BDE0002C18D05D01026894462A
:10466000654480225200AF5CE43A7026374200D0A5
:10467000AFE09036AF5D04323A43AA5500681A1C89
:10468000083252018218802010717BE05D010268BF
:104690009446654480225200AE5CE43A760700D02E
:1046A00097E080267600AF5D1A3A3A43AA55006833
:1046B0001A1C0832520182184020507162E0002C0E
:1046C00017D05D0102689446654480225200AF5CB9
:1046D000E43A702637427CD19036AF5D14323A43CB
:1046E000AA5500681A1C08325201821880201071E5
:1046F00048E05D0102689446654480225200AE5C49
:10470000E43A760765D180267600AF5D193A3A43E0
:10471000AA5500681A1C08325201821840205071B4
:1047200030E0002C17D05D01026894466544802279
:104730005200AF5CE43A702637424AD19036AF5D02
:1047400024323A43AA5500681A1C083252018218D2
:104750008020107116E05D01026894466544802255
:104760005200AE5CE43A760733D180267600AF5D26
:10477000183A3A43AA5500681A1C083252018218A6
:104780004020507148785A0012191201134DAA188E
:1047900007252840050756681148304028435060D7
:1047A0008A78002A0BD05B001A1912010B4CA21850
:1047B0005368802109060B435360002209E05B0027
:1047C0001B191B01054AD3185A68520052085A6037
:1047D0000022101CF0BDC046088A0000E00A00203C
:1047E000FFFFFF8F0F230B4049B200290ADA08337D
:1047F0005B010268D218802111710268D31802226D
:10480000DA7109E008335B010268D2184021517166
:104810000268D3180122DA717047C0460F230B409B
:1048200049B2002907DA026808335B01D318987986
:104830008006C00F06E0026808335B01D318987940
:10484000C006C00F7047C0460F230B4049B2002975
:1048500006DA026808335B01D31820225A7105E09A
:10486000026808335B01D31810225A717047C046A2
:1048700030B50F230B4049B200291EDA59010268F6
:10488000521883246400145DA40634D520258224A4
:10489000640015550268944661440822FF328A5C20
:1048A000520628D5C43C0822FF328C5402680833D3
:1048B0005B01D31802221A711DE0590102685218D7
:1048C00083246400145DE40615D510258224640059
:1048D00015550268944661440822FF328A5C9206AC
:1048E00009D5E43C0822FF328C54026808335B018E
:1048F000D31801221A7130BD30B50C1C0834640184
:104900000568645D6406640F1C25002C16D04C01FC
:104910000B4D2D192C1C2A616D690A4A2A406261CF
:104920009B049A0C63699B0B9B03134363610368AD
:1049300008314901591880234B710025281C30BDCE
:10494000E00A0020FF3F00F030B50C1C0834640181
:104950000568655D1C246D0715D00C4D4C01625136
:104960002C199B041A096568094B2B40134363609B
:1049700063689B0B9B036360036808314901591806
:1049800040230B710024201C30BDC046E00A0020EB
:10499000FF3F00F0094B19605968094A0A4080211D
:1049A00089020A435A605A68920B92035A6002685D
:1049B000402182235B00D15400207047E00A002090
:1049C000FF3F00F00268117802230B431370026866
:1049D0009378022BFCD07047F0B55F4656464D46A3
:1049E0004446F0B483B0C84B1F683D682B78DB09A0
:1049F00000D154E1288C80B2C44B9847041E1F2C70
:104A000000D9D2E0031C08335B01ED18ED79EDB25B
:104A1000AB0750D0BE4A012383401168994311600F
:104A2000031C08335B013A68944663440322DA713D
:104A30003B18A8339B79DB073DD5B64B18703A6815
:104A4000031C08335B019B5C03221340012B10D134
:104A50004201B14B9B185A689204920CAD494A80AE
:104A60005A681201920C8A805A68920B92035A601B
:104A700019E04301A84AD3185A681201920CA548BC
:104A8000428059688904890C81805868A349014093
:104A90005960002A07D163019F4AD3185B689B04C1
:104AA0009B0C9C4A5380984B1868A31C1B01C3188D
:104AB0005B68984998476B070ED5954A0123A34038
:104AC000116899431160904B1B681A68231C0833C6
:104AD0005B01D3180422DA712B0721D58C4A0123FC
:104AE000A340116899431160874B1868231C083351
:104AF0005B010268944663440822DA710319A83303
:104B00009B799B070CD583490C706301824AD318AB
:104B1000DA891F2313404B702301C3189B6A9847FF
:104B2000EB0622D57A4A0123A3401168994311600C
:104B3000754B1868231C08335B0102689446634474
:104B40001022DA710319A8339B795B070DD5714ADE
:104B5000147063017049CB185B681B019B0C538078
:104B60002301C318DB6A00219847AB0600D4F8E1A3
:104B7000674A0123A340116899431160624B18688A
:104B8000231C08335B010268944663442022DA71D7
:104B90000319A8339B791B0700D4E2E15D490C702F
:104BA00024010419236B9847DBE1AC8BA4B26307A3
:104BB00008D50423AB83A133FB5CDB0702D57B68FC
:104BC000381C984723070DD50022514B1A604E4BD5
:104BD00018680823026893839D33C35C9B0701D543
:104BE0008368984763060AD5474B186840230268D4
:104BF00093836533C35CDB0601D543699847A306FD
:104C00000AD5414B18682023026893838533C35C1F
:104C10001B0701D503699847E3060AD53A4B186884
:104C20001023026893839533C35C5B0701D5C36887
:104C3000984723060DD50022354B1A60324B186871
:104C40008023026893832533C35C9B0601D5836967
:104C50009847E3050ED500222D4B1A602A4B1868A1
:104C600080235B00026893835B3BC35C5B0601D5DA
:104C7000C3699847A30500D473E10022244B1A604E
:104C8000214B186880239B00026893835C3BFF3BA9
:104C9000C35C7F2B00D864E1036A984761E12E8CE6
:104CA000B6B2002E40D1AE8BB6B2AB235B00FD5A3C
:104CB0003540023BFB5A1D400024194F124B9946C8
:104CC00098466300DB5B1E4203D04A4612681268B6
:104CD00093831D4213D0062C07D10F4B1B891A0951
:104CE00080235B0013400F4A1360231C2E339B006C
:104CF000424612689B58424610680A499847013458
:104D0000072CDED12DE1C04664070020CD650000F0
:104D10005807002050070020E00A0020FF3F00F065
:104D20001C8A00004C0700203C1C5934FF3400232F
:104D3000012294465F329146503A92460D3A93468C
:104D4000B8462F1CD8B20193321C1A416146114259
:104D500000D101E11A1C08325201BA18D279D2B23C
:104D6000217A2578294011404D4615422AD03D1C14
:104D700047465B01ED180823FF33EB5C5B0609D562
:104D800040220823FF33EA54883BFF3B0343784A21
:104D900093710AE00823FF33EB5C9B0605D52022C4
:104DA0000823FF33EA54724B987160230B4200D101
:104DB000D7E0019B1B01FB18DC335B68381C6C4996
:104DC0009847CEE0554615421FD03D1C4746019AF4
:104DD000131C08335B01ED181023EB71BB18613312
:104DE000FF331B78DB0600D4BBE0101C5301614A83
:104DF000D3185B689B049B0C5D490B800301FB1877
:104E0000D8335B6840469847ABE05D46154240D0DA
:104E10003D1C47468046019B5B01ED180823FF338C
:104E2000EB5C9B0712D502220823FF33EA54504A59
:104E3000883BFF3B03439371019B5B014D48C318C3
:104E400010335B689B049B0C538017E00823FF33EF
:104E5000EB5CDB0712D501220823FF33EA544448F8
:104E600043468371019B5A01424B9B185A68920436
:104E7000920C02805B681B019B0C83808B0770D0B7
:104E8000019B0D331B01FB185B68381C38499847A0
:104E900067E00C2515425FD03D1C47468046019BCC
:104EA0005B01ED180823FF33EB5C1B0723D50822B9
:104EB0000823FF33EA54019B5B012E4AD3181833B1
:104EC0009B789B0707D5019B5A012A4B9B189A7E1A
:104ED000022082439A7680235B4242461343244A4F
:104EE0009371019B08335B013A6894466344DB7914
:104EF0009B0725D535E00823FF33EB5C5B071FD507
:104F000004220823FF33EA54019B5B01194AD3189A
:104F100008339B789B0707D5019B5A01154B9B18BB
:104F20009A7A022082439A72114B42469A71019BEF
:104F300008335B013A6894466344DB79DB0710D49D
:104F40000C230B420DD0019B1B01FB18D4335B6873
:104F5000381C0749984704E001330134082B00D07E
:104F6000F0E603B03CBC90469946A246AB46F0BD85
:104F70005C070020E00A0020002202700123437039
:104F80008270C3707047C046F0B54F464646C0B405
:104F900083B0041C0D1C161C00236C4A13606C4A61
:104FA000106021606B49C86920220243CA6101AFC9
:104FB0007B700122BA70FB70063399463B70182053
:104FC000391C654B984698474B463B701920391C55
:104FD000C047B3786A461370062069465F4B98470E
:104FE00006205F4B98472A78012313432B70012238
:104FF000AB781A42FCD15B4BDA7803218A43022159
:105000000A43DA70DA780C218A4308210A43DA70FD
:10501000554B1B689B03DB0E1F2B00D11A3B9A01DB
:10502000298D524B0B4013432B854F4B1B685B0262
:10503000DB0E1F2B00D1023B2A8D1F218A43134315
:105040002B85494B1B689B015B0F072B00D1043B51
:105050001A03298D464B0B4013432B853378DA0115
:105060002B787F210B4013432B7073780122134060
:105070009A002B787B398B4313432B703D4B6B622B
:10508000F378012B05D12268138908318B431381F2
:1050900008E0002B06D121680B890C2293430422DF
:1050A00013430B813348002180225200324B984732
:1050B000221D231C2433002102C29A42FCD1211C50
:1050C000A43100221A605A609A60DA6010338B4271
:1050D000F8D10023A422A3540132A354231CA633E5
:1050E000211CAE3100221A701A7201338B42FAD1A0
:1050F000221CB832231CD433002102C29A42FCD1B4
:10510000211C5531FF3100221A605A609A60DA6022
:1051100010338B42F8D10023AA225200A35202324C
:10512000A352231C5933FF336134FF3400221A7019
:105130001A720133A342FAD18022104B1A60002068
:1051400003B00CBC90469946F0BDC04658070020FD
:105150006407002000040040C12D0000C92C00009D
:105160003D2C000000500041246080003FF8FFFF0C
:10517000FF8FFFFFE00A00200F88000000E100E041
:10518000FEE7C04670B52E4B2E4A9A4203D02E4BF6
:105190002B4A9A4204D32D4B2D4A9A4210D31EE03B
:1051A0002C4A294B03339B1A9B0801339B00002296
:1051B000234824498C58845004329A42FAD1EAE7B1
:1051C000254A224B03339B1A9B0801339B00002284
:1051D0001F4800211418216004329A42FAD11F4A54
:1051E000FF211F4B8B439360FD3990235B001D4AC9
:1051F000D1501D48C3780324A34302221343C37034
:10520000C3780C26B34308210B43C370174B987B1C
:105210003025A843051C202028439873987BB04371
:1052200001439973997BA1430A439A73104A5168C9
:1052300080230B4353600F4B98470F4B9847FEE773
:1052400000000020708B000014010020180D0020C9
:1052500018010020040000201C01002000ED00E0E7
:105260000000000000700041005000410048004173
:1052700000400041B1870000055E000008B5092824
:1052800005D80A4B98470A490A4B98470CE063280F
:1052900005D8064B98470849064B984704E0034B4E
:1052A00098470649034B984708BDC046D572000091
:1052B00000002041356A00000000C84200007A4426
:1052C000F0B55F4656464D464446F0B487B03E4B77
:1052D0001B6805933D4B1B680493059F0598059B30
:1052E0009946059D059B0193049A0292049C240310
:1052F000240D374B1C80049E360D364B1E80000556
:10530000000F35498B4688470390FF229046131CB7
:105310003B40181C314FB847314A92460399904799
:10532000304B18602802000FD847051C4946080B6F
:1053300041460840B847291CD0472B4B1860019BB9
:105340001816B847294B9B469847294B9A46002286
:10535000284BD047021C0B1C2749894600202749AF
:10536000C847274DA847274B019018606B46082077
:105370001856B847D84700221E4BD047021C0B1CBA
:1053800000201E49C847A8471F4B029018601F4FB6
:10539000201CB847011C1E4D0198A8471D4C1E49F2
:1053A000A0471E4B1860301CB847011C0298A84744
:1053B0001949A0471A4B186007B03CBC9046994663
:1053C000A246AB46F0BDC04630608000346080002D
:1053D000F40B0020E80B00207D5200004572000015
:1053E0003D670000FC0B0020040C0020A1800000A1
:1053F0006573000000408F40AD7900000000F03F71
:1054000049810000F00B0020E40B0020D572000061
:10541000A56C0000356A000000F07F45E00B00201D
:10542000000C0020F0B589B0264B9847071C264B8E
:105430001B681A1C254D264B18680092111CA847A2
:105440000190244B19680E1C234B1868A847011CB7
:10545000224C0198A04702900397381C2049A0478E
:105460000496311CA847011C1E4F0298B847011C26
:105470001D4E0098B0471D4B069018601C4B1B68D2
:10548000191C1C4B18680591A847079006980099AD
:10549000A847011C0798B8470199A047011C059827
:1054A000B047011C0398B8470D49A0470499A84785
:1054B000011C0298B847011C0098B0470E4B1860B9
:1054C00009B0F0BDD5720000FC0B0020096F000090
:1054D000040C0020E00B0020000C0020356A0000C6
:1054E00000F07F45A56C00003D670000EC0B00203C
:1054F000F00B0020E40B0020F80B00207047C046A2
:1055000038B5234B1A68002A1ED0224C20686168E7
:105510000023214DA84780B2204B18800022002391
:10552000226063601A4B1A601D4B1B88C31A143328
:105530009BB2282B05D901321A4B1A70184B1880D0
:1055400002E00022174B1A70174B1A68002A1ED06F
:10555000164C2068616800230F4DA84780B2144B99
:10556000188000220023226063600F4B1A60114BE9
:105570001B88C31A14339BB2282B05D90132094B5F
:105580001A700C4B188002E00022064B1A7038BDCE
:1055900068070020C80700200D660000B207002041
:1055A00074070020C007002070070020B807002003
:1055B000B6070020AC07002030B589B0254B1B781A
:1055C000002B44D006AC2448211C244B9847244986
:1055D0000A88244B100A18705A70234A1088050A4A
:1055E0009D70D87021480088050A1D7158712048A7
:1055F000007898711F480078D871E088050A1D72FC
:105600005872607998722079D872A078187360788F
:1056100058732078987300230B80138001AB6822A5
:105620001A70583A5A70013A9A7000230D4801AA2C
:10563000D218195CD17001330F2BF8D101A879333E
:10564000837413210C4B98470022024B1A7009B047
:1056500030BDC046C0070020080C0020ED1A000035
:10566000B207002090070020B6070020820C00201F
:10567000AF070020B00700206D0E000010B580229B
:10568000D2050B4BDA610B4B98470B4B98470B4CF1
:105690000123237220780330C0B23C21084B984785
:1056A00021700848211C0022074B984710BDC046B6
:1056B0008044004101550000B9550000300C002025
:1056C00099630000080C0020191B000010B586B07B
:1056D00004AC1548211C154B9847E288144B110A5D
:1056E00019705A7062799A702279DA70A2781A71F8
:1056F00062785A7122789A7101AB68221A70573A0F
:105700005A700A3A9A700023094801AAD218195C03
:10571000D1700133072BF8D101A8813383720B219B
:10572000044B984706B010BD080C0020ED1A00008D
:10573000A40700206D0E000000B583B000236A4668
:10574000D3700B4B1A78120259788A186946CA80AE
:105750009A784A71DA780A711A798A705A794A7095
:105760009B790B700348044B984703B000BDC046BB
:1057700078070020080C0020D51A000008B50C4B53
:105780001B68013B002B02D0094A13600FE0142272
:10579000074B1A60074B1A68802109018C46624446
:1057A0001204120C1A6001320021034B984708BD05
:1057B000080100208C070020313400000C4B1B78BE
:1057C000002B0BD00B4B1B88152B03D901220A4B46
:1057D0001A700AE00022084B1A7006E0074B1B887B
:1057E000152B02D90222044B1A70034B187870470C
:1057F000B0070020280C0020AF070020800C0020FC
:1058000030B5294B19684B7E5BB2002BFBDB0B6973
:105810001F229343073A13430B614B7E5BB2002B6D
:10582000FBDB4B7E5BB2002BFBDB0A7B02231343CB
:105830000B734B7E5BB2002BFBDB012004250224A3
:105840000B7EDBB2021C1A401D4200D022431C42D8
:1058500000D02A431042F3D00A7ED2B20123134073
:10586000500701D502200343920701D504221343B8
:105870000020DB0716D54B7E5BB2002BFBDB488B91
:1058800080B201230B760A7ED2B21340540701D5B1
:1058900002242343920701D5042213435B0701D559
:1058A00002230B7630BDC046840C002008B50A4A9E
:1058B000116C02230B431364084B9847084B98471D
:1058C000084B1880084B98470849094B9847094BE3
:1058D0009847094B188008BD00080040C1520000DD
:1058E00001580000200C00202554000000007A44DC
:1058F000A56C0000A1660000820C002010B5054CCC
:10590000201C05490022054B9847201C0021044B10
:10591000984710BD080C00207D560000DD1B0000DC
:10592000FD1B000070B588B003ACA0231B012380D1
:105930000023A370E370FA22D200E2801E491032E5
:10594000CA8009224A7106320A718A7003324A708B
:105950000B700125257105A80A3A184B9847257444
:10596000174E301C1749221C174B98476B465D7128
:1059700035681A78531E9A41D2036B465B78002B28
:1059800002D080235B001A4300230124FF20191C4E
:1059900069448978002903D0211C994001400A43B9
:1059A0000133082BF3D1AB881A4392B2AA80044882
:1059B000064B984708B070BD300C0020FD870000F2
:1059C000080C002000140040491B0000ED190000E5
:1059D000074B1B6A5B06DB0F064A137003D0044BB0
:1059E00080229A6102E0024B80225A617047C046D1
:1059F00080440041B007002038B5074C00232370D5
:105A0000A37063702620211C044DA8470123237036
:105A10002720211CA84738BD2C0C0020C9190000E4
:105A200030B58DB06846174B984701236A4613700E
:105A300080239B0053800023537018331373C023BB
:105A40005B01D3810423D3750F4C104D201C291CFE
:105A50000F4B98472223AB702268537E5BB2002B1A
:105A6000FBDB802109040B4B1960117802230B43E7
:105A70001370054B1A68537E5BB2002BFBDB0DB035
:105A800030BDC04615010000840C002000400042DB
:105A90005D01000000E100E030B5584B1B78002BA1
:105AA00046D10022564B1A80564B19684B7E5BB28A
:105AB000002BFBDB0B691F229343163A13430B6148
:105AC0004B7E5BB2002BFBDB4B7E5BB2002BFBDB28
:105AD0000A7B022313430B734B7E5BB2002BFBDB71
