S01700004445564943455F4558414D504C45312E73726563C1
S1130000B82C0020613D00005D3D00005D3D000016
S113001000000000000000000000000000000000DC
S11300200000000000000000000000005D3D000032
S113003000000000000000005D3D00005D3D000088
S11300405D3D00005D3D00005D3D00005D3D000044
S1130050851500005D3D00005D3D0000B1370000E6
S11300605D3D0000A91A0000B91A0000C91A000079
S1130070D91A0000E91A0000F91A00005D3D0000D9
S11300805D3D00005D3D0000FD0500000D06000023
S11300901D0600002D0600003D060000E1040000DE
S11300A05D3D00005D3D00005D3D00005D3D0000E4
S11300B00000000010B5064C2378002B07D1054B37
S11300C0002B02D0044800E000BF0123237010BDC0
S11300D0EC000020000000005847000008B5084B61
S11300E0002B03D00748084900E000BF0748036815
S11300F0002B00D108BD064B002BFBD09847F9E735
S11301000000000058470000F0000020584700009D
S1130110000000000368587EC009704730B597B0EE
S113012002AD041C0A49281C50220A4B9847132C80
S11301300BD80023A40001A960594B70CB708B70BD
S113014001330B70C0B2044B984717B030BDC046A2
S1130150904600006D460000D5250000C0229200A4
S1130160428030220271283A0273C8225201C281AD
S1130170021C00232A320370437003760362C361B6
S11301808360037443748374C37403751370421DD2
S113019043758375D377C3840385C37526322C30A6
S11301A01370037070470000F0B58025B84C0160EF
S11301B0236A6D022B4323620C7887B00523E4077E
S11301C000D562E109781733890700D55DE15378DA
S11301D00371002B04D10424AE490B6C23430B643C
S11301E0AD4900230860111C2A3103838360C36076
S11301F003618376C376037701910978994203D129
S1130200117D994200D10133141C4377137805A959
S11302100B7000900668A14B1E209847A04B1E202F
S11302209847231C2C331B78277B002B19D0221CC6
S11302302B3215787D19EDB2EB18DBB20293029ADA
S1130240EB1BDBB2954208D20F20227B03409818A7
S11302500135944B9847EDB2F1E7E089914B98470B
S113026004E0381C8F4DA847E089A847637D9B00B4
S1130270DBB23370A37D6278DB011343DBB27370AE
S11302802579302D1ED008D8102D18D0202D19D046
S1130290002D00D0F8E02B1C15E0322D09D014D32A
S11302A0332D0AD0342D00D0EEE0627C237C10255F
S11302B00EE00423102502220AE0062306E00823A8
S11302C0002205E000231A1C02E00223102501226B
S11302D0702112010A401343B370E37D3F2B00D910
S11302E0D2E0F3700098704FB8470028FAD1E27C4E
S11302F063881343621D0292D27FD2001343227D8E
S113030092001343A27C520013432B43B380237EF9
S1130310002B61D0102D4BD002D8002D31D05BE0E2
S1130320202D17D0302D57D1E37CE269002B09D062
S1130330131C8033FF2B00D9A6E0236A8033FF2BE4
S113034000D9A1E0FF2A00DD9EE0236AFF2B00DD37
S11303509AE041E0E27CE169544B002A0CD080220F
S113036092008A189A4200D98EE08020226A800086
S113037012189A4200D987E0994200DD84E04B4B81
S113038012E0E27CE1694A4B002A0AD08022120181
S11303908A189A4278D88020226A000112189A4258
S11303A072D8994270DC424B226A9A426CDC13E0A8
S11303B0E27CE1693F4B002A0AD0802212028A18AB
S11303C09A4261D88020226A000212189A425BD8AD
S11303D0994259DC374BE7E70098B8470028FBD12E
S11303E0237E33720098B8470028FBD1A38BB383D4
S11303F00098B8470028FBD1238C3384231C2C336A
S11304001D78002D03D0013DEDB20F2D3CD8231CE7
S11304102B3303931B780F2B36D80098B84700284A
S1130420FBD1E289237B2D041343A2681343039A6F
S11304301278120513431D43019B35611B783375F4
S11304400F23B375029BDB7F002B0CD0E38C184980
S11304508B4219D8B3848023228D1B01D3189BB2FD
S11304608B4211D8F284144B1A68E0235001DB004C
S11304701840124B51011A68D30E0B43DAB2031C15
S113048013433385002300E01723181C07B0F0BD85
S11304900004004000080040280700200125000057
S11304A07D2400001D01000015010000FF03000071
S11304B0FF0F0000FFFF0000246080002060800028
S11304C003685A7E52B2002AFBDB02211A7B0A43DC
S11304D01A730268537E5BB2002BFBDB704700008B
S11304E038B5284B1C6801232268157EEDB21D42E5
S11304F01DD0E17E19421AD0A17E194217D013767D
S113050021684B7E5BB2002BFBDB6269931C636149
S11305104B8B9BB21380238B013B9BB22383002B19
S113052024D0637F002B02D0201C174B9847042350
S11305301D420BD022681376E27E023B1A4205D09C
S1130540A27E1A4202D0201CE368984702231D426F
S113055017D022681376E27EDB181A4211D0A27EED
S11305601A420ED02369201C98470AE0227F052AEC
S1130570DDD1237701232268201C9375A368984753
S1130580D5E738BD28070020C1040000931C9B0058
S11305901950012393401A1C837E1A4382767047B4
S11305A070B50126144B8000C4582368257E9B7BBC
S11305B01D40637E1D40354204D0A368201C98472B
S11305C023689E730226354204D0E368201C9847B2
S11305D023689E731026354204D02369201C984753
S11305E023689E732026354204D06369201C9847F3
S11305F023689E7370BDC0462C07002008B50020F8
S1130600014B984708BDC046A105000008B501206C
S1130610014B984708BDC046A105000008B502205B
S1130620014B984708BDC046A105000008B503204A
S1130630014B984708BDC046A105000008B5042039
S1130640014B984708BDC046A105000008B5034BFF
S113065098478022024BD2051A6008BDCD300000B5
S1130660944400417FB501AC201C0E4B98470123F4
S11306700F2500262372A372DB18281CE372211CA9
S1130680094B019566609847321C291C074B0848A2
S11306909847281C311C074B98478022064BD205EB
S11306A01A607FBD591600006D1600001515000074
S11306B04D0600003D150000984400418022024B85
S11306C0D2051A607047C0469844004108B50F200F
S11306D00021014B984708BD3D15000008B50F20C7
S11306E00021014B984708BD611500008022024B90
S11306F0D2051A607047C046944400417047704761
S1130700704770477047704770470000FA2108B57A
S11307108900094B984789B2002903D18022074BED
S1130720D20506E0FA235B00994203D18022044BF0
S1130730D2051A6008BDC0467D43000094440041C0
S11307409844004182B0EFF310835A42534101931D
S113075072B6BFF35F8F0022024B1A70019802B089
S11307607047C046E8000020024A1378013BDBB220
S1130770137070479C0300200020704700207047CE
S113078008B500200149024B984708BD0801002024
S11307900D41000008B5064A1378013BDBB2137023
S11307A01078044BC0B298470022034B1A7008BD5E
S11307B00F010020153F0000A2030020002805D0EF
S11307C00122034B1A70BFF35F8F62B67047C046B5
S11307D0E800002038B50024A122114B114D124924
S11307E02C701C80114B201C1A70813A5A701E3ACE
S11307F05C809C80DA801C81E1235B020B6008230F
S11308000C718B714C710A4B9847201C094B98470B
S1130810A04203D02B780133DBB22B7038BDC04625
S1130820360600209C03002008010020A8030020B5
S11308300D410000FD3E0000F0B5374B87B01A783B
S11308400493002A66D1354CA047354D0294354BAC
S11308502C88002800D0344B984784425AD0334B1C
S113086098473349334B0C78071CE4B26200D25AE0
S113087005910393002A16D12F4E33880133338018
S1130880029B9847002806D13388632B03D8381C71
S11308902A4B98473EE0029B9847002803D03288B1
S11308A0274B9A42F3D90022234B1A80254B1B78FD
S11308B0934205D163426341059ADBB2137002E0AF
S11308C062425441E4B20123049A381C13701B4B56
S11308D09847039B6700DE5B413EFF3E731E9E41CB
S11308E0F6B2002E08D0029B98470F4B002800D187
S11308F00C4B9847288000E02E80A2012402141992
S11309001149124A039B1219DB5B81200091104CA0
S1130910311CA04707B0F0BDA40300209D2C0000AB
S1130920A0030020A12C0000B12C0000450700000A
S1130930100100201401002012010020BD07000056
S11309401F03000035060020610900001801002083
S1130950392F000008B5014B984708BD390800003D
S113096008B500280CD1074B1B785A425341064A5C
S11309705B009852054B1870054B1870054B98474F
S113098008BDC046100100201401002035060020D7
S1130990A40300203908000073B5094C217800290C
S11309A00DD1084B084A1D881689AE4207D01B8812
S11309B0064D1381064B00930A23A847207073BD8C
S11309C09D03002036060020A8030020392F0000D4
S11309D0D5090000002110B57C24074B101C1970A8
S11309E006490B88A3430B8005490B89A3430B815C
S11309F0044B984710BDC0469D03002036060020D6
S1130A00A80300209909000038B50A4B051C0C1CEA
S1130A109847094B002D03D019882143198002E01F
S1130A201A88A2431A80054B98478320044B9847A1
S1130A3038BDC0464507000036060020BD0700004B
S1130A4099090000602210B5144B197848B20A4085
S1130A50002809DA0020202A1ED15A78212A1BD125
S1130A60DA88072A18D113E00020202A14D15A78F2
S1130A70202A08D0222A0FD101245988084B21406A
S1130A809847201C08E0DA88072A05D1054919612E
S1130A90012005499A81996010BDC046C80900200B
S1130AA02D3F0000810700000801002008B5012047
S1130AB04021014B984708BD090A000038B5074B8F
S1130AC09847074B074A1D88074BADB21B785B005C
S1130AD09B5A9CB2054B9847601B38BD45070000E4
S1130AE09E03002098030020A3030020BD070000FC
S1130AF008B50020014B984708BDC046BD0A000058
S1130B0008B5034B9847431E9841C0B208BDC04680
S1130B10BD0A0000F7B51B4B98471B491B4A0C78CC
S1130B201578E4B2EDB2002D08D16600B446184B36
S1130B30184E1F8863469E5BB74203D2164B9847F4
S1130B4000201EE0124B1D8063426341DBB20B7038
S1130B5001231370104B9847281C104B984700280A
S1130B6002D0281C0E4B98470E4BA2010093A023E1
S1130B70240214190C4A0220121901215B000B4CA7
S1130B80A047FEBD45070000A30300203406002053
S1130B909E03002098030020BD070000010B000005
S1130BA0C1400000390C0000B4030020392F0000BC
S1130BB038B50024134B144D2C701C70134B1C704F
S1130BC0134B1C70134B1C805C80134B1C80134B09
S1130BD09847134B1C70134B1C70134B1C805C8088
S1130BE0124B1C80124B9847A04209D02B7801333A
S1130BF0DBB22B702B78DBB2012B01D10D4A1370C1
S1130C0038BDC046A40300200F0100203506002093
S1130C101001002014010020A00300203908000066
S1130C2034060020A3030020980300209E03002024
S1130C30150B0000A203002013B500281DD10F4B93
S1130C401B785C426341DBB200290ED199011B027F
S1130C50CB180B49101CCB181A1CA02309495B00A4
S1130C600091094C0121A04707E0084A5B0089B2C2
S1130C709952074B1870074B984713BDA3030020E4
S1130C80B4030020390C0000392F00009803002021
S1130C9034060020150B000008B50020014B9847CE
S1130CA008BDC046010B0000F7B50F1C151C1D4BF9
S1130CB098471D4B19888BB200931C4B1C781C4B16
S1130CC0E4B26600F35A9BB201931A4B9847009B17
S1130CD0019A934204D3184B1B78002BE7D11EE0F2
S1130CE0134B009AF35A2E1C9B1A9D4200D91E1CCA
S1130CF0009BA101240209195C181049381C321CFC
S1130D000F4B09199847084B074A1B88AD1B9B19C1
S1130D109BB213800B4BBF199847002DC7D1281CD9
S1130D20FEBDC046450700009E030020A30300202B
S1130D3098030020BD070000A2030020B403002094
S1130D406D460000150B000008B5031C0A1C0020AA
S1130D50191C014B984708BDA90C000038B5114B6C
S1130D6098471149114A0B78DBB25C00A45AA022BF
S1130D70520094420FD10E4A1278002A0BD10D4D25
S1130D802A78D2B2002A06D101242C705C42634135
S1130D90141CDBB20B70084B9847A0204000001BCA
S1130DA038BDC04645070000100100201401002092
S1130DB0A403002035060020BD07000008B5034B3E
S1130DC09847431E9841C0B208BDC0465D0D00005F
S1130DD008B50020014B984708BDC046BD0D000072
S1130DE0F8B5154B0D1C9C79093C63425C41E4B297
S1130DF00020124B9847002805D1114B1878C0B237
S1130E000028F5D117E00F4B98470F4B0F491B787B
S1130E10DBB25E00725A571C775299011B02CB1841
S1130E209B180B4A9D540B4B9847002C02D02D1253
S1130E300024DDE70120F8BD08010020BD0D0000FD
S1130E40A203002045070000100100201401002027
S1130E5018010020BD07000008B5011C014B00204B
S1130E60984708BDE10D0000F7B51D4B0F1C9B7999
S1130E70141C092B00D1540000201A4B9847002859
S1130E8004D1194B1B78002BF6D127E0174B984758
S1130E90174B01901D78174BEDB26A00D35A261CEC
S1130EA00093A023009A5B009B1A9C4200D91E1C4D
S1130EB02B02A801C018009B391C18180E4B321CB9
S1130EC018180E4B9847009B0A4A9B196D00AB52A9
S1130ED001980B4B9847BF19A41BCDD1201CFEBD14
S1130EE008010020BD0D0000A203002045070000FA
S1130EF01001002014010020180100206D4600009C
S1130F00BD07000008B5031C0A1C0020191C014B76
S1130F10984708BD690E000008B5034B58887F2325
S1130F201840024B984708BDC8090020AD300000A6
S1130F3030B5134B1B78002B01D100201FE0114B5F
S1130F401B681B681A798242F7D90F4A1360DC7850
S1130F509D7824022C431C199C420ED95D78042DE3
S1130F6008D19D78854205D1DD788D4202D1136088
S1130F70012004E01D785B19EEE71360DDE730BD66
S1130F80440600203C06002048060020094B1B684C
S1130F901968CA788B7812021A438A180378C01821
S1130FA0824205D94378042B02D0052BF6D100E008
S1130FB0002070473C06002038B5104B051C9847AC
S1130FC0002801D1002018E00D4B1C68201C0D4B9B
S1130FD09847041E0AD06279237912021A43807852
S1130FE0E178094B98470028F0D1EBE7074BAD00B7
S1130FF01B685B68EB581B68984738BD310F0000CD
S1131000480600208D0F0000152D00003C0600202E
S113101070B50021104D041CA847002801D10025FB
S113102018E00E4BA2001B685B68D658F36898471B
S1131030011C201CA847051EF1D0094B1C68201C6C
S1131040084B9847041E03D08078074B9847F6E76F
S113105073689847281C70BD310F00003C060020BF
S1131060480600208D0F0000C12C000008B5014B7C
S1131070984708BDE931000038B500240B4B1A78B5
S11310801D1CA24205D1002301222B70084B1A809B
S113109038BD084B1B681B681B79A342F3D9201C7D
S11310A0054B01349847E4B2F3E7C04644060020F8
S11310B0420600203C0600201110000010B5002458
S11310C00A4B1B78A3420FD0094B1B681A6812798C
S11310D0A24209D95B68A200D3581B69002B00D037
S11310E098470134E4B2EFE710BDC046440600203F
S11310F03C060020F8B500239A4C2278A38150B214
S113110023616361984203DAE388002B00D1A9E1EB
S11311106021114000D05DE11F23002800DBA6E020
S1131120E588002D00D155E1134069D16378062B81
S113113009D0082B5CD0002B00D04BE18A48022D4B
S113114000D047E158E063881D0A022D0CD006D870
S1131150012D00D03EE1854B186801783FE0032D56
S11311601FD00F2D13D035E1804ADBB21168497CC2
S1131170994200D82EE15268DB009858C1788378F0
S1131180090219437A4B9847A3685D7029E0774BAD
S11311909868002800D11DE1C178837809021943B9
S11311A01DE0DBB2012B0AD0002B05D0022B00D0AE
S11311B010E10F216F4D04E06F4804210FE0092175
S11311C06E4D00236E485A00EE5C8218013356803F
S11311D0DAB28A42F6D349000231017089B2644B13
S11311E09847E388A2899A4200D839E1A38137E17C
S11311F0012D00D0EEE06348291C5D4B98472FE198
S1131200012B23D163780A2B00D0E3E0012D00D019
S1131210E0E05C4B1B78002B00D1DBE05A4B2579D6
S11312201E6833681B79AB4200D8D3E0281C574BA7
S11312309847002800D1CDE07368AD00EB58DB6817
S11312409847534B01211870181CD6E7022B00D085
S1131250C0E06378002B00D0BCE0022D00D0B9E0E0
S11312604C4B207998474C4B1880181CC4E713400A
S11312704FD160780138082800D9ABE002F0EEFFC6
S11312800CAAAAAA05AAAAAA1A00E388002B00D0CD
S1131290A0E0424B2361E3E0E388002B00D099E017
S11312A06388012B00D095E002212F4A13888B43D9
S11312B01380D5E0E588002D00D08BE0384B9847AB
S11312C0002800D186E0294EA27833685B7C9A42DC
S11312D000DD7FE0334B9847A3782A4A1370002B34
S11312E000D1BDE0284A30495B187168161CDB0048
S11312F0CB18136033681B681B79AB4200D8AFE08E
S1131300281C0021294B9847002863D00135EDB2F1
S1131310F0E7012B15D163780B2B5BD1E388002B0D
S113132058D1184B1B78002B54D02679204B301CF5
S11313306588984700284DD0E9B2301C1B4B98476C
S113134046E0022B46D16378012B02D0032B33D025
S113135040E0E388002B3DD16388002B3AD120790B
S1131360144B34E0C8090020420600203400002059
S113137005310000A7000020E4000020B700002091
S1131380C4000020440600203C060020310F000069
S113139040060020E12D000038060020190F00004F
S11313A0BD30000079100000FFFFFF1FB90F0000DF
S11313B011100000FD2E0000E388002B0AD1638881
S11313C0002B07D12079284B98472079274B984741
S11313D0002845D11F2322781340012B1ED1244B12
S11313E01B78002B1AD0234B25791E6833681B7990
S11313F0AB4213D9281C00211F4FB84700280DD039
S11314007368AA00D658F3689847011C281CB8478B
S1131410002803D0B3689847002821D11F232278DD
S11314201340022B1ED1124B00241B78002B19D021
S1131430104B1B681A681279A24213D95B68A20088
S1131440D558EB6898470C4B011C201C9847002882
S113145008D0AB689847002802D10134E4B2E7E72A
S1131460012000E00020F8BD612C0000F52D0000F3
S1131470440600203C060020310F0000094B196887
S113148000290BD1EFF31080074A002805D172B66A
S1131490BFF35F8F05490870012111701A6801328A
S11314A01A6070474C06002050060020E800002017
S11314B0084B1A68013A1A601B68002B09D1064BC5
S11314C01B78002B05D00122044B1A70BFF35F8FE9
S11314D062B670474C06002050060020E800002049
S11314E0F7B50125002701AC084E211C3E2065708C
S11314F0A7702570B0478022054BD2051A600F20D3
S1131500211C27706570B047F7BDC046DD1600008A
S11315109844004110B51723002A0BD1064B8900CB
S1131520CC58002C02D1C850231C03E0131C844265
S113153000D01D23181C10BD4807002017230029C4
S11315400AD11F2806D8163B8340181C034BD860C9
S11315500B1C01E0C960FFDE181C70470018004036
S1131560172300290AD11F2806D8163B8340181CCC
S1131570034B98600B1C01E08960FFDE181C704768
S113158000180040002310B50A4C237023780F2B59
S11315900FD801229A4008490869104206D00A610E
S11315A0064A9B009B58002B00D0984723780133B0
S11315B0EBE710BD45070020001800404807002055
S11315C0014B5878C009704700180040022108B543
S11315D0044A13780B431370034B98470028FBD13C
S11315E008BDC04600180040C115000007B54021E1
S11315F0114A052093690B439361002301A90B70E1
S11316000E4B98470E4B0520984701210D4A13783D
S11316100B4313700C4B98470028FBD100220B4B53
S1131620C31804301A604028F8D1094B10321A60EC
S1131630084B984707BDC046000400400125000040
S11316407D24000000180040C11500004807002058
S113165000E100E0CD150000002301220360436097
S11316608372023302724272C3727047F7B50C1C64
S11316700026237901A94E70CE700B70237A051CC5
S11316808B702078134B9847331C1F2D00D8124BB6
S11316900726A27A2E40B600E17A002A01D0082259
S11316A011430F27B740B140E80880001818826939
S11316B0BA430A438261627A0120002A04D0A84016
S11316C05A691043586103E0A8405A6982435A6139
S11316D0F7BDC046D52500000018004007B580229C
S11316E001AB1A700A785A704A789A708A78191C71
S11316F0DA70014B984707BDD525000010B549089D
S1131700041C002340208C420BD8581C091B80B2B7
S1131710A14201D3031CF8E74020FF2B01D800208D
S1131720138010BDF0B5061C341C8BB010A80078D3
S1131730402744438C4200D98FE009921C1C0D1CA5
S1131740321C002B3BD1191C454EB047002300220C
S113175000951F1C1D1C3F230194161C141C04908F
S11317600393039A3F4B012000219847221C2B1C12
S113177012196B4184460498141C1D1C084203D0A2
S113178001222243141C1D1C019BAB420CD802D124
S1131790009BA34208D8009A019B6046394330431A
S11317A0A41A9D41061C0F1C039B5A1E0392D8D2F7
S11317B000220123921BBB41160C1B0449E00026A6
S11317C0012B47D14B0F0793CB000893311C331CDB
S11317D0234CA04700900191F3B206930023002408
S11317E000253F2703933A1C1E4B012000219847F4
S11317F0221C2B1C12196B41049205931D1C089B7F
S1131800141C03409C46079B19406346194303D0AC
S113181001222243141C059D019BAB420AD802D12C
S1131820009BA34206D8009A019BA41A9D41039BE6
S113183003430393013FD6D2039B0B4A9B1BDB0854
S1131840934204D90136082EC6D1402705E0069AF2
S113185056031E430027099B1E80381C0BB0F0BDA5
S1131860CD45000075450000FF1F000037B50D4B46
S1131870041C1A781D1C002A01D000290CD001A9CF
S11318801320094B0C7098471320084B98470123E9
S11318906C702B70002004E05B78081CA34200D01D
S11318A01D203EBD51060020012500007D240000BE
S11318B03A4A031C00B5081C93422BD006D8384A78
S11318C093420DD0374A934217D057E0364A934299
S11318D03AD0364A934244D0354A93424ED126E018
S11318E00023032957D802F0B9FC4B020406314BFC
S11318F051E0314B4FE0314B4DE0002303294AD8EE
S113190002F0ACFC400204062D4B44E02D4B42E0B7
S11319102D4B40E0002303293DD802F09FFC350203
S113192004062A4B37E02A4B35E02A4B33E00023E8
S1131930032930D802F092FC2A020406264B2AE03E
S1131940264B28E0264B26E00023032923D802F067
S113195085FC1F020406234B1DE0234B1BE0234B95
S113196019E00023032916D802F078FC14020406B7
S11319701F4B10E01F4B0EE01F4B0CE000230AE04E
S11319801E4B08E0032306E01D4B04E01D4B02E060
S11319901D4B00E01D4B181C00BDC046001000424A
S11319A000080042000C004200180042001C0042E3
S11319B000140042030005000300060003000700B2
S11319C00300010003001E0003001F0003000900C0
S11319D003000A0003000B000300110003001200BF
S11319E00300130003000D0003000E0003000F00AA
S11319F0030017000300180003001900030004008B
S1131A00030008000300100003000C00030016008C
S1131A1070B586B06946094B6A4670CB70C170CB0D
S1131A2070C1002399005158884201D1D8B203E013
S1131A300133062BF6D1002006B070BDE04600004D
S1131A407047000070B50A4A0A4D1378141C002B25
S1131A500AD10026084AEA50084A9A180433166044
S1131A60182BF6D1173B23708000295070BDC04657
S1131A705306002054060020411A00008807002065
S1131A8013B5041C054906226846054B9847201CDB
S1131A90044B98476B46185616BDC046F8460000DE
S1131AA06D460000111A000008B5024B00201B68A7
S1131AB0984708BD5406002008B5024B01205B6816
S1131AC0984708BD5406002008B5024B02209B68C5
S1131AD0984708BD5406002008B5024B0320DB6874
S1131AE0984708BD5406002008B5024B04201B6922
S1131AF0984708BD5406002008B5024B05205B69D1
S1131B00984708BD540600200268D369002BFCD115
S1131B1070470000F0B5061C93B0A54B3160081C5B
S1131B20141C0591012798470522059B02921B6806
S1131B303B4200D039E1059B1D6802231D401A3346
S1131B400293002D00D030E13A1C9A490B6A9C465E
S1131B50831C9A40131C624613430B62231C2D33CF
S1131B6003931B780CA914300B70C3B2181C029396
S1131B70914B98470298914B9847039B291C1878DE
S1131B808F4B9847E37A7371631DDB7FB371A31D99
S1131B90DB7FF371E37E3372237F737233680493C4
S1131BA0181C834B98470EAB1D80238A1430039373
S1131BB08023039ADB019A4219D004D880239B0125
S1131BC09A420FD008E0C023039ADB019A420BD05B
S1131BD080231B029A4203D010230293002709E0BA
S1131BE00323FAE7102300E00823029302E008230A
S1131BF02F1C029323680793E3680893636909938E
S1131C00237E0A93E31DDB7F0B9363680693231CF7
S1131C10069A0833002A11D080220699520591426F
S1131C2024D1DB7F002B21D1664BC0B2256A9847B3
S1131C300EAA011C644B281C984713E0DB7F002B81
S1131C4004D0029B0093206AA16A07E05D4BC0B2F6
S1131C50256A9847011C281C029B00930EAA3B1C72
S1131C605A4DA8470290002800D09EE0637E002BC6
S1131C7002D0A37E049A9373554F301CB8470EAB21
S1131C801B88049A089D9381079B1D43099B1D4350
S1131C90069B1D43039B1D430A9B1B021D430B9B79
S1131CA05B071D43231C0833DB7F0297002B01D104
S1131CB004331D43277F637E7F029B021F43637FA0
S1131CC01B021F43631DDB7F5B041F43A31DDB7FDC
S1131CD01B041F43E37A1F432389FF2B04D0802274
S1131CE0520415431F4305E0E37E002B02D08023FA
S1131CF0DB041D43231C2C331B78002B03D1354BF1
S1131D009B789B0701D580231D43301C029B984779
S1131D10049B301C5F60029B9847049B0EAF1D60C0
S1131D2000230DAD029380332B706B461B7A6B70CE
S1131D306B461B7AEB706B461B7AAB70236B0E936E
S1131D40636B7B60A36BBB60E36B0024FB60A3004D
S1131D50F858E1B2002802D105981F4B9847431C5C
S1131D6005D02870000CC0B2291C1C4B98470134C4
S1131D70042CECD1321C00233032F385F360336140
S1131D807361B361F3613362B3627362B385937059
S1131D9013705370D3703068054B9847041C104B74
S1131DA010499847104BA400E650029813B0F0BDB8
S1131DB0111A000000040040012500007D240000E9
S1131DC06D1800001D250000FD16000025170000F9
S1131DD0091B000000200041B1180000D5250000B7
S1131DE0451A0000751E000088070020F8B5041C81
S1131DF0104B171C0E1C05689847A28D0E4B002A29
S1131E0002D09847052013E0A7859847231C052294
S1131E10323366621A700423AB75237A002B01D027
S1131E202023AB750020637A834201D00823AB756D
S1131E30F8BDC0467D140000B1140000931C9B0043
S1131E40C3185960012393401A1C303003781A4395
S1131E5002707047031C10B51720002A06D09C7925
S1131E600530002C02D0181C014B984710BDC04609
S1131E70ED1D0000F8B5574B8000C4582568EB6988
S1131E80002BFCD12F7EAB7D1F40231C31331A78ED
S1131E90013B1E78012316401F4220D0E28D002A08
S1131EA01CD0A16A0B78DAB24B1CA3626379012BB4
S1131EB001D093B204E04B7802311B021343A162B8
S1131EC0DB05DB0D2B85E38D013B9BB2E385002B0A
S1131ED005D101332B750133AB7500E02B7502235B
S1131EE01F4209D02B75231C002233331A70F307C9
S1131EF002D5201CE368984704231F424BD0A28DCF
S1131F00002A47D06B8BDBB21A0701D43F2200E0D2
S1131F10372213401CD002221A2113420FD104226B
S1131F201E2113420BD101221321134207D1102287
S1131F304221134203D12022134204D04121231C05
S1131F40323319706A83730725D5201C63691FE037
S1131F502B8D616ADB05DB0DDAB20A70626A511CF3
S1131F6061626179012904D11B0A5370636A0133E8
S1131F706362A38D013B9BB2A385002B0BD104228A
S1131F802A75221C32321370B30704D5201C23692E
S1131F90984700E02B7510231F4206D02B752B7633
S1131FA01E4202D0201CE369984720231F4206D01A
S1131FB02B752B76330702D5201CA3699847082379
S1131FC01F4206D02B752B76B30602D5236A201C3C
S1131FD09847F8BD88070020024BDB68DB06FBD579
S1131FE07047C046000800400222F8B50026094D9B
S1131FF0094C2B68094F13432B60A284B847AB6884
S1132000E3626B68A362A684B8472B68301C9BB25A
S1132010A384F8BD6C06002000080040D91F00000E
S113202010B5082806D802F019F90705052E2E1256
S11320300A15260000202AE0154B186927E0154BE5
S1132040186A154B8005800FC340181C1FE0104B05
S113205058691CE002230E4C2068184017D00F4B1F
S1132060984723685B0711D50D4B00209847A36858
S11320709BB258430BE00B4B00201B785B0706D543
S1132080034BD86803E08020000200E0064810BD3E
S11320906C0600200008004000127A00D91F0000DE
S11320A01D25000050080040006CDC0270B50121C1
S11320B08678057842784020094C0A40236A9201C8
S11320C08343134380223140C90193430B437D3A38
S11320D0044915402D020B402B43236270BDC046BA
S11320E000080040FFFCFFFF027A438992069B052B
S11320F09B0D120C1A43194B30B55A6042888488E0
S113210081791443C2790A4341782243C90104788E
S11321100A431A60042C0ED1027B018A92060A43F8
S1132120151CC2890E4912040A402A439A601A688F
S113213014431C6010E0202C0ED1027B018A92060D
S11321400A43141CC289064912040A4022439A60B5
S11321501A6804490A431A6030BDC0466C06002060
S11321600000FF032404000008B5082806D802F084
S113217075F8130505270D19071F2200172020E005
S11321800221104A136A0B43136219E002210D4A1B
S113219093690B43936113E002210A4A138A0B43A8
S11321A013820DE00221074A938A0B43938207E0CE
S11321B0054B984705E00221044A13780B4313703A
S11321C0002008BD00080040E91F0000440800404A
S11321D0C2231E21F0B5354EDB00354AB360536887
S11321E000258B431A390B43536001238BB005AC94
S11321F02370E8B2211C2F4B01359847252DF8D1C7
S1132200002320226380A371E37163702A4B227040
S11322101B689B0E3F2B00D1203B23720723002514
S1132220012723730333E381244B201C6381FF3B89
S1132230A380234B2382234B984701A8224B45704C
S1132240877005709847214B06209847204B984784
S1132250062302AC211C65702572657203201D4D96
S113226023706760A84703201B4FB8471B4B984750
S11322702B1CF2680D49D206FBD5802000258A8CE0
S113228002438A84164A0721157255729572D572D3
S113229001222170281C211C626022726570657203
S11322A09847281CB8470BB0F0BDC0460008004052
S11322B0004000410125000024608000FF0100006F
S11322C080BBFFFFE9200000AD2000006921000071
S11322D0F122000011230000B5230000E91F0000D3
S11322E000040040014B5878C0097047000C0040BE
S11322F00821054A93690B4393610122034B1A7029
S11323001A78D207FCD4704700040040000C004047
S1132310F8B50C784B782402061C051C0443002BEA
S113232002D08023DB021C434B7A002B02D0802393
S11323301B031C434B68012B12D95D1E1D400AD19F
S113234002229A4202D201355200FAE780232D027A
S113235035435B0303E01D02802335439B021C438A
S11323600B7A002B02D080239B031C430C4FB847ED
S11323700028FBD10B4B98470B4B1E70B847002825
S1132380FCD10A4B9D601D1CB8470028FCD180235A
S11323906A685B0213401C436C60054B9847F8BDA8
S11323A0E52200007D140000080C0040000C0040F1
S11323B0B114000038B5051C094CA0470028FBD116
S11323C0084B9847084B1D70A0470028FCD180217A
S11323D0064A490253680B435360054B984738BD7E
S11323E0E52200007D140000040C0040000C0040B5
S11323F0B1140000F7B5071C184EB0470028FBD1F4
S1132400174B9847174B1F700193B0470028FCD116
S1132410154D164B6868C004C00E9847041C019BF8
S11324201F706B68DB02DB0F0193114B1F70B04709
S11324300028FCD1AD680F4B9847019B2D0AADB223
S1132440002B07D1012D07D9201C291C0A4B9847C2
S1132450041C01E00135EC40201CFEBDE522000017
S11324607D140000040C0040000C004021200000FA
S1132470080C0040B11400007142000010B5041CA7
S1132480064B98478021064B064A1C705388C901A5
S11324900B435380044B984710BDC0467D14000085
S11324A0020C0040000C0040B114000010B5041CE4
S11324B00D4B98470D4B0E4A1C700E4B598858888B
S11324C00905104058805C880B48090F204058804B
S11324D05C8808486404FBD40B0241880A401A4310
S11324E04280064B984710BD7D140000020C00404A
S11324F0FFF0FFFF000C0040FFBFFFFFB11400001E
S113250010B50C78034B240204439847024BA4B241
S11325105C8010BDAD240000000C004010B5041C0C
S1132520064B9847064B1C70064B5C88064B2405EB
S1132530240F9847201C054B984710BD7D140000BC
S1132540020C0040000C0040B1140000F523000010
S1132550D37830B5002B1BD11478802C03D0802382
S113256024065B02234302255478AC4309D19478B2
S1132570002C02D18024A40201E0C024E4022343FD
S113258041605478013C012C04D8114C234001E0F3
S113259000234160A0258CB2ED052C43D0251C43BB
S11325A084622D060C0C2C431C438462D478002CCA
S11325B00CD15B0305D59378012B01D1816100E037
S11325C041615378013B012B00D8816030BDC04686
S11325D0FFFFFBFF10B500240A1C4309C109A142F7
S11325E002D10649DB015C181F21012301408B4005
S11325F0201C191C024B984710BDC04600440041E2
S1132600512500007047000008B5054B9847054B5D
S11326109847054B9847054B9847054B984708BD85
S1132620D1210000E114000005260000ED15000092
S11326300526000082B0EFF310835A425341019300
S113264072B6BFF35F8F0022024B1A70019802B07A
S11326507047C046E80000200F2303405B00C00918
S11326601818142302385843014B18187047C046F1
S113267088060020F0B58D7985B06AB20E1C544BE3
S1132680281C002A46DA0F2798472F400197038A0F
S1132690816802937688C368041CF618C660877C38
S11326A08E4221D08D1B4B4BADB29D4206D9181CD6
S11326B00299494B9847474B5D1AADB20022BB07BC
S11326C006D5464B281C0299984789B24A424A418A
S11326D051000222A37C4248934362681943A174C7
S11326E0921901992B1C0AE00223381C184009D0C6
S11326F09F43002362683A480199A7749219394CA0
S1132700A04763E001239F432368A774311C002B77
S11327105AD15BE098470F232B400293038A041C91
S11327200193837C37885B0711D5C268436894465C
S1132730634403938068294B01999847029B0A1CC0
S1132740591E294B8901C9180398284B9847E368F7
S1132750FA18A368E2609A4200D9E360B288BA42E8
S113276029D1E6689E4226D09D1B1A4FADB2BD42C8
S113277005D9194B381C019998477B1A04E0174B6B
S1132780281C019998476B1A019A9BB21448184F58
S113279093420BD20422A37C02991343A374029B99
S11327A05A1E114B9201D218019B02E062680299F1
S11327B09219B8470AE00122A37C9343A3742368C7
S11327C0002B03D00020E1682A1C984705B0F0BD17
S11327D059260000FF1F00005D4500007D430000F6
S11327E060080020D9360000A00700206D460000D4
S11327F025370000052210B5054B064C1A70201C25
S11328008021054B9847201C0021044B984710BD9C
S113281003070020600800205F36000079360000BE
S113282037B5041C1D4B98478023226801AD937271
S1132830281C1B4B98470323291C6B70201C194B25
S11328409847201C1849194B9847194D201C002102
S11328500222184BA8470021201C0A1C164BA8472B
S1132860164B201C00210122A847154D201C0021D5
S11328700222A8470021201C0A1CA847201C002172
S11328800122A84722680F4B11890B408021C900FF
S11328900B43138100220C4B1A7037BD79100000D2
S11328A07934000089340000E00900206D3700000D
S11328B009330000952B0000212E00000929000097
S11328C059330000FFF3FFFF03070020032210B574
S11328D0074B084C1A70201C0749084B98470021E5
S11328E0074B201C9A68074C0B1CA04710BDC04620
S11328F00307002060080020E00900206D37000075
S1132900C8090020D936000008B589790C4B4AB2B1
S1132910002A08DA1B78012B02D10A4B98470DE0F4
S1132920042B0BD107E01A78022A02D102321A7062
S113293004E0032A02D10448044B984708BDC0466A
S113294003070020CD280000600800205F36000047
S1132950F8B51D4D1D4E2988B4891D4F641AA4B2C3
S1132960002C1BD11B4A1388CB189BB21380F2880E
S11329709A4203D0184B1B78002B07D00422174B24
S1132980381C1A701649174B98471CE07369002BC2
S11329900BD09847002808D02C80B4893F2C04D948
S11329A000220D4B40241A7002E001220A4B1A70D7
S11329B02B88B268381CD2180021231C0A4EB04759
S11329C02B88E4182C80F8BD00070020C8090020DB
S11329D0600800208406002002070020030700206E
S11329E0E00900206D370000D936000008B5024B1D
S11329F09847024B984708BDBD100000B93E00003F
S1132A00002805D00122034B1A70BFF35F8F62B612
S1132A107047C046E8000020F0B585B003AD04223D
S1132A20164B041C1649281C9847164B1A78019318
S1132A300092A24220D0002C0CD02E5D124FBB5D20
S1132A40FF2B00D1FEE7114B9847BB5D0133BB550B
S1132A500F4B9847009B002B0CD0ED5C0A4E735D26
S1132A60002B00D1FEE7094B9847735D013B73557A
S1132A70074B9847019B1C7005B0F0BD6D460000E4
S1132A80FE46000004070020400700203526000011
S1132A90012A000070B50D1C0D4C06210D4E201CA2
S1132AA0B0470421201CB04702210B4B201C98473F
S1132AB00A4B022098472B68002B01D0084B9847FB
S1132AC02B68002B01D1074B9847074B984770BDE3
S1132AD060080020ED320000CD320000192A000009
S1132AE0F13E0000E53E0000D93E000010B5074C61
S1132AF00421201C064B98470221201C054B9847B3
S1132B000120054B9847054B984710BD60080020ED
S1132B10ED320000CD320000192A0000A13E000071
S1132B20064B9A8C920605D4D022D9680A40D02A42
S1132B30FAD102E0DA68D206FCD5704700080040FA
S1132B4038B50C4B98470C4C0C4B201C0221984771
S1132B500B4D201C0421A8470A4A0B4B201C0621BC
S1132B6098470621201CA8470320084B9847084B88
S1132B70984738BD212B000060080020ED3200008A
S1132B80CD320000952A0000AD320000192A000061
S1132B90AD3E000070B5274E0C1C3378002B06D0D8
S1132BA0254B1B69002B00D09847002333702388E2
S1132BB0082B01D0214B2DE0214C1F4D23782B7085
S1132BC063786B70E378A2781B02D3186B80637907
S1132BD022791B02D318AB80E379A2791B02D318A4
S1132BE0EB80184B98470028E4D02B787F2B0DD925
S1132BF00021154B221C1980144B154819800223FF
S1132C00144C33703E33A047134B03E0EB88002B86
S1132C1002D1124B98470BE000210B4B221C198068
S1132C200A4B0B48198001230A4C33703F33A047E9
S1132C3070BDC04603070020C8090020F527000026
S1132C40E0090020F51000008406002000070020A1
S1132C50600800202537000051290000CD2800001D
S1132C6038B5041C0A4B0B48211C98470A4B201CFE
S1132C709847031C827C0120024207D01D688243CE
S1132C809A74002D02D0D968221CA84738BDC046CA
S1132C901536000060080020592600000020704707
S1132CA0024B1B68188A8004400D7047600800209E
S1132CB0024B1B68188A80B27047C0466008002027
S1132CC0F7B5041C002601AD281C0C4B9847201CAA
S1132CD00B4B98470B4F291C381C0B4BEE702C7078
S1132CE098470F21321C2140381C084B9847381C48
S1132CF0321C211C064B9847F7BDC04679340000AE
S1132D00612C000060080020893400003133000089
S1132D10E9330000F7B5061C01AC294B201C0F1C3D
S1132D20151C984726700023082D1ED90123102D49
S1132D301BD90223202D18D90323402D15D9042390
S1132D40802D12D980235B009D4201D8FB3B0CE00F
S1132D5080239B009D4202D8FB3BFF3B05E0194BBF
S1132D609D4201D900202AE007236370301C164BD2
S1132D7098470323391C05821940012901D1013BDD
S1132D8004E0022902D00329ECD104230F4DE3709F
S1132D90211C281C0E4B9847041EE3D10F21221C32
S1132DA00C4B3140281C0C4FB847221C311C0B4CD7
S1132DB0281CA047281C311C0122A0470120FEBD6D
S1132DC079340000FF030000592600006008002049
S1132DD089340000752600000933000059330000CF
S1132DE008B5011C014B0248984708BD4136000054
S1132DF0600800200F2310B50340041C0020032B9F
S1132E0007D80448211C044B9847201C034B9847BF
S1132E10012010BD600800205F360000612C000016
S1132E20F7B52B4A13780192012B42D1294A2A4D36
S1132E300E881488AB89A219934201DA1E1BB6B21C
S1132E40AB68264F1819391C254B3419321C984786
S1132E50A3B2204C2380402E05D1224EE98832882B
S1132E60D21891420FDCAB816B69002B09D09847D3
S1132E70002806D10523019A002013701A4B9847A5
S1132E8024E01A4B18E0AA899A420BD16B69002BF3
S1132E90F0D098470028EDD022883388D3183380A7
S1132EA00023238000213A1C4023114C1148A047E1
S1132EB00CE0022B02D1104B984707E0064B1B692C
S1132EC0002B00D098470023019A1370F7BDC04629
S1132ED00307002000070020C8090020E0090020A3
S1132EE06D46000084060020F52D0000CD2800006A
S1132EF025370000600800205129000038B50F2351
S1132F0000240340032B0FD8084B041C9847051CCE
S1132F10211C0124064B07489847AB7C234203D06D
S1132F20A343AB742B689847201C38BD5926000076
S1132F307936000060080020F0B51D1C0F2385B011
S1132F400340071C039101920093032B01D900262F
S1132F5092E04B4B9847061EF9D14A4B381C9847D0
S1132F60041C494B98470122A37C1A4002920299FF
S1132F70464A002901D090477EE001210B43A37407
S1132F80904701220221019BA5606360029BE360DC
S1132F900A9B2360039B13405A00A37C8B43134377
S1132FA004229343A3747BB2002B36DAA67C002D53
S1132FB01AD0374FADB2BD4205D9218A381C354BE2
S1132FC098477D1AADB20021B30706D5324B218A4A
S1132FD0281C984789B24B4259410222A37C4900DC
S1132FE093431943A17411E00E4202D08E43A67498
S1132FF00CE001239E43A6740A9B002B04D00020FE
S11330003A1C011C0A9B9847012635E00099019A55
S11330102B1C224C2248A04725E0002D27D01C4E13
S1133020ADB2278AB54205D91A4B301C391C9847D2
S1133030731A04E0184B281C391C98476B1A9BB26E
S11330401748184EBB420BD20422A37C00991343A9
S1133050A374009B5A1E144B9201D2183B1C01E02E
S11330600099019AB04746424641F6B204E0012273
S1133070A37C9343A374BFE7301C05B0F0BDC046E6
S1133080E12D00005926000035260000012A000029
S1133090FF1F00005D4500007D430000D93600009D
S11330A06008002025370000A0070020024B1A68A2
S11330B0802318439072704760080020024B1B68FD
S11330C0987A7F23184070476008002008B50A4B9F
S11330D098470A4B03209847094B1A680623517BEB
S11330E0022907D0013B002B04D00220118901439F
S11330F01181F4E708BDC046212B0000192A000005
S113310060080020014B986099817047C80900202D
S1133110012008B5034B1A68138903431381024B3A
S1133120984708BD60080020192A0000F8B5012757
S11331300320164B9847164C164E2268201C138900
S11331400421BB431381144AB047201C0021134AB5
S1133150B047391C201C124AB047124A201C0221D5
S1133160B047114D201C0421A847201C0021A8476A
S1133170391C201CA847201C0221A8470B4A201CEC
S11331800621B047201C0621A847F8BD192A0000D3
S113319060080020AD320000ED2A0000ED29000097
S11331A021280000412B0000CD320000952A0000A8
S11331B008B50E20074B00219847074B1B6A5B0498
S11331C001D5064B00E0064B98470E200021054B25
S11331D0984708BD61150000004400412D310000EE
S11331E0113100003D150000F0B5204B85B0984723
S11331F01F4B071C6846984700246B461D4D6A46C2
S11332001D49281C9C701D4B9847281C1C4B984733
S11332101C4B01AD984701201B4B9847281C1B4BA6
S1133220984703230E26EB72023BAB72211C184B0A
S1133230301C6C602C7201969847291C301C154B6D
S11332409847154D311C221C144B281C9847144BCD
S1133250301C211C9847134B1B6A5B0400D5A847FC
S1133260381C114B984705B0F0BDC0463526000008
S1133270713B00006008002000500041813B0000C9
S11332809D370000212B0000192A00005916000068
S1133290611500006D160000B13100001515000025
S11332A03D15000000440041012A00000B1C2E3390
S11332B09B001A50AA22044B52004900C95A835A4F
S11332C00B4383520020704702470000064B49001D
S11332D0CB5AAB21026849009383425A1A434252A3
S11332E0026800201383704702470000054B490021
S11332F0CA5AAB214900435A9343435203680020FE
S11333009A8270470247000010B58C00A418343428
S1133310A4000419401863605930044BFF3001784D
S11333209B5C0B430370002010BDC0461047000097
S113333010B500248B009B1834339B00C31841182C
S11333405C605931034BFF319A5C0B78201C93432A
S11333500B7010BD104700000F2370B50B40C4184C
S11333606134204DFF342678AD5C35432570002A46
S11333700FD10268002B03D1131C0322FF332DE06D
S11333805B01D31849B2FF330222002926DB012254
S113339024E0012A0FD10268002B03D1131C0C2254
S11333A0FF331BE05B01D31849B2FF330822002925
S11333B014DB042212E0022A05D102685B01D3184F
S11333C0FF3310220AE0032A09D102685B01D318F3
S11333D049B2FF334022002900DB20229A720020E8
S11333E070BDC046104700000F2370B50B40C418D1
S11333F0204D6134FF34AE5C2578B5432570002A36
S11334000FD10268002B03D1131C0322FF332DE0DC
S11334105B01D31849B2FF330222002926DB0122C3
S113342024E0012A0FD10268002B03D1131C0C22C3
S1133430FF331BE05B01D31849B2FF330822002994
S113344014DB042212E0022A05D102685B01D318BE
S1133450FF3310220AE0032A09D102685B01D31862
S113346049B2FF334022002900DB20225A72002097
S113347070BDC04610470000002303704370837082
S11334800133C370704700000F23F0B5051C0A78A0
S1133490C8781340D209042800D99BE02C6800F0B6
S11334A0DDFE0308495D7A00002008335B01E05427
S11334B0ABE05E01A419FF3462781C20520700D0EF
S11334C0A3E070226778174200D09EE05F3A6270F2
S11334D02A6808335B01D218243050712A684B4C97
S11334E0D31880221A718B78002B08D08025A31959
S11334F058682D06284358605A692A4307E0A319DF
S11335005A68520052085A605A69520052085A6165
S113351007224878A519104004073D4E68683040DA
S1133520204368604B781A406B6912073340134399
S11335306B6165E058012418FF34002A07D0702617
S113354067781C20374260D16078503E12E066787C
S11335501C20760759D16078022632E058012418DD
S1133560FF34002A10D0702667781C2037424CD1D3
S11335706078403E30436070181C2C68083040016D
S113358020188024047125E066781C2076073CD13D
S11335906078032615E05801002A0AD07026201806
S11335A0FF304778041C1C2037422ED16078303E0F
S11335B0E0E72418FF3466781C20760725D104261A
S11335C0607830436070181C2C6808304001201863
S11335D0402444715B009B180C4A1B01D31807223A
S11335E048785C6802401007094A224002435A6046
S11335F088785A68002805D0802109060A435A6051
S1133600002002E0520052085A60F0BD200A002057
S1133610FFFFFF8F0F230B40026808335B0149B2A1
S1133620D218002905DA802111710268D318022208
S113363004E0402151710268D3180122DA71704705
S11336400F230B40026808335B01D31849B2987901
S1133650002901DA800600E0C006C00F70470F237E
S11336600B40026808335B0149B2D31820220029B9
S113367000DB10225A7170470F2330B50B400268EB
S11336805C011219FF3249B2D579002911DA2021DF
S11336900D4220D05171026814194022FF34217A5E
S11336A0114218D02272026808335B01D318022237
S11336B010E010210D420ED051710268141920221D
S11336C0FF34217A114206D02272026808335B016A
S11336D0D31801221A7130BD70B50C1C056808346A
S11336E06401655D1C266D066D0F14D00B4D4901F8
S11336F069180D1C0A614969094A9B040A406A61F8
S11337009A0C6B6900269B0B9B0313436B61036844
S11337101C1980236371301C70BDC046200A002030
S1133720FF3F00F070B50C1C056808346401665D49
S11337301C25760713D00B4D49014A519B04691887
S11337404D681A09084B2B4013434B604B68002506
S11337509B0B9B034B6003681C1940232371281C9B
S113376070BDC046200A0020FF3F00F0094B0A4A02
S1133770196059680A40802189020A435A605A68CC
S1133780920B92035A60402203680020FF335A715F
S11337907047C046200A0020FF3F00F00221026863
S11337A013780B43137002689378022BFCD0704794
S11337B0F0B5D44E85B035682C682378DB0900D188
S11337C0C8E0208CD04B80B29847011C03230831F9
S11337D049016418E479071CE4B21C4248D0CB4A7E
S11337E0944601228240604600689043021C604671
S11337F0026001202A685218D371EA19A83292791A
S1133800024235D0C24A17702868095CC148194081
S11338107B01C31801290CD159688904890C518092
S113382059680901890C91805A68920B92035A6075
S113383017E059680901890C01916946898851800A
S113384058688004800C9080586884466146B24869
S1133850084058600199002903D15B689B049B0CC4
S11338605380BB1C1B01EB185B68281CA8499847B4
S1133870042214420DD00123BB40A4490868984394
S1133880A04B08601B6819683B1C08335B01CB180C
S1133890DA71082214421DD00123BB409B490868F9
S11338A0984308603068BB1801685B01CB18DA7173
S11338B0C319A8339B799B070CD59549954A7B017D
S11338C0D3180F70DA891F2313404B703B01C318C0
S11338D09B6A9847102214421FD00123BB408B4996
S11338E0086898433B1C08603068083301685B0132
S11338F0CB18DA71C319A8339B795B070DD5844AB9
S113390084497B01CB1817705B6800211B019B0C59
S113391053803B01C318DB6A98472022144200D12C
S113392020E10123BB407949086898433B1C0860A7
S11339303068083301685B01CB18DA71C319A83306
S11339409B791B0700D40DE171490F703F01C71922
S11339503B6B63E0228C92B20192002A29D1AB2303
S1133960A48B5B005532EB5AFF32A4B2AD5A23400C
S1133970019F1D40694B7A00D35A1C4202D0326821
S1133980126893831D4210D06549062F06D1802208
S1133990604B52001B891B0913400B603B1C3268AF
S11339A02E339B009B58101C98470137072FE1D1F9
S11339B0D8E02E1C5936FF36019A01211A41D8B29B
S11339C00A4200D1C9E01A1C083202925201A2181C
S11339D00392D1793778327AC9B23A4060270A40E3
S11339E039421DD0590164184021FF34267A0E4211
S11339F003D02172C039084304E02021267A0E4204
S1133A0002D021724749887160210A4200D1A9E09D
S1133A101B01EB18DC33281C5B6842499847A1E082
S1133A201027394216D0039AD771EA186132FF324F
S1133A3012783A4200D195E036495A018A18526800
S1133A401B0192043749EB18920CD8330A805B6847
S1133A50281CE3E78F072CD05E01A419FF34217AD8
S1133A608C46022167460F420CD0217282390843EA
S1133A7028492C4C8919A071103149688904890C92
S1133A80618010E00127217A39420CD02772214944
S1133A90244C8919A07148688004800C20804968EE
S1133AA00901890CA18092075CD00D331B01EB182E
S1133AB0B1E70C27394250D008215E01A419FF3424
S1133AC0277A0F4230D02172022412498E19B17E16
S1133AD01836214202D0B178A143B1708021494205
S1133AE00843104988710299286849014118C97925
S1133AF0890737D40C210A4234D01B01EB18D43384
S1133B0089E7C046200700208D45000014070020E7
S1133B100C070020200A0020FF3F00F002470000AD
S1133B2008070020180700200421277A0F42E1D05B
S1133B3021720D49891902268C7A0831344202D047
S1133B408C78B4438C7009498871029928684901BA
S1133B504118C979C907CDD504E001330136082BD2
S1133B6000D029E705B0F0BD200A00201807002086
S1133B7000220123027043708270C37070470000FA
S1133B800023F7B5041C171C674A0D1C1360674A11
S1133B90216010602020664901AECA690243CA61EF
S1133BA001227370F370063333700838311C614B93
S1133BB0B2709847062319203370311C5D4B984727
S1133BC06A46BB780620137069465B4B98475B4B8B
S1133BD00620984701222B7813432B70AB78DB0720
S1133BE0FCD403211F20564AD3788B4301390B435D
S1133BF0D370D3780A318B4304390B435149D370C2
S1133C000B685B0B0340834200D1052303409A01F8
S1133C102E8D4D4B334013432B850B689B0C034077
S1133C201F2B00D1023B1F202A8D034082431343E4
S1133C302B8507230A68D20D1A409A4200D1032229
S1133C401340298D1A03414B41480B4013432B85E4
S1133C503B782978DA017F230B4013432B7001232F
S1133C6004217A7813409A002B788B4313432B70EA
S1133C706862FB78012B04D12268083113898B43D5
S1133C8006E0002B05D10C2522681389AB430B43B6
S1133C90138180222F4B520000219847231C221DA0
S1133CA02433002102C29A42FBD1211CA4310022F8
S1133CB01A605A609A60DA6010338B42F7D11A7036
S1133CC0231C211CA5331A70AE31013300221A7053
S1133CD01A7201338B42F9D1221C231CB832D4331B
S1133CE0002102C29A42FBD1211C5531FF3100222E
S1133CF01A605A609A60DA6010338B42F7D1AA23B3
S1133D005B00E2520233E252231C61345933FF3325
S1133D10FF340020187018720133A342F9D18022B5
S1133D200D4B1A60FEBDC04614070020200700207A
S1133D3000040040D5250000012500007D2400007A
S1133D4000500041246080003FF8FFFFFF8FFFFF19
S1133D50200A00207F46000000E100E0FEE70000AA
S1133D602148224970B50023884201D1204B07E045
S1133D70204CCA18A242F9D2C45804331460F7E79D
S1133D801D4A934202D2002204C3F9E7FF21022410
S1133D9003251A4B1A4A8B430C2693600822194BAD
S1133DA019495C62CB78AB432343CB70CB78B343E4
S1133DB01343CB703021154B987B8843103908434B
S1133DC09873997BB1431143997380219A7BAA43D9
S1133DD022439A730E4A53680B4353600D4B984722
S1133DE00D4B9847FEE7C0465847000000000020EE
S1133DF0EC000020EC000020B80C002000000000C3
S1133E0000ED00E0FC70004100500041004800411A
S1133E100040004121460000453F00000122014BC3
S1133E201A7070472407002010B58CB068460E4BFA
S1133E3098470E4C0E4B201C0E496A46984723683F
S1133E405A7E52B2002AFBDB80210B4A090411601E
S1133E5002211A780A431A702268537E5BB2002B3F
S1133E60FBDB0CB010BDC0465D010000240C00203B
S1133E70A90100000040004200E100E010B5054C3B
S1133E800549201C0022054B98470122E37E134379
S1133E90E37610BD240C00201D3E00008D050000BB
S1133EA008B5014B984708BDBD06000008B5014B95
S1133EB0984708BDED06000008B5044B1B78002B9D
S1133EC003D0034B9847034B984708BD25070020B0
S1133ED0A12C00000D07000008B5014B984708BD50
S1133EE0BD06000008B5014B984708BDDD0600007B
S1133EF008B5014B984708BDCD06000010B5012454
S1133F00024B1C70024B9847201C10BD2507002053
S1133F1045420000002208B5024B1A70024B984734
S1133F2008BDC046250700205142000008B5034BD8
S1133F30002900D1024B984708BDC046FD06000089
S1133F40FF06000038B501240E4D2C70BFF35F8FBF
S1133F5062B600220C4B1A705A709A70DA701C7197
S1133F600A4B98470A4B98470A4B98472C70BFF363
S1133F705F8F62B6084B9847084B9847084B9847A1
S1133F80FEE7C046E80000204007002009260000A4
S1133F90293E00007D3E000065060000BD060000CD
S1133FA06D10000010B50B4B98470B4B98470B4C0A
S1133FB0002804D10A4B98470A4B984702E020781E
S1133FC0094B9847094B9847211C0122084B094883
S1133FD0984710BD05070000D10D000026070020FA
S1133FE0AD0A000009070000590E00000707000091
S1133FF0551E0000840C002010B50E4B86B0984767
S113400000280DD00C4B98470C4B9847041C0C4BC4
S1134010211C01A8984701A8211C0A4B984707E0D6
S11340200121094B31331A788A431A70074B984798
S113403006B010BD990C000001070000F10A000051
S1134040490D0000050F0000840C00200307000048
S113405038B50A4D0A4B2C68201C98471F2318407A
S11340601E3B8340181C074B18602A68D369002B39
S1134070FCD1022223681343236038BD840C002042
S1134080811A000000E100E038B50A4D0A4B2C68A3
S1134090201C98471F2318401E3B8340181C074BC5
S11340A0D8672A68D369002BFCD102222368934382
S11340B0236038BD840C0020811A000004E100E074
S11340C030B50C4BB3B098470B4B98470B4D041EBF
S11340D06846C82C06DD0A4923220A4B98476846DD
S11340E0232104E0211C084B98476846211CA8475B
S11340F033B030BD01070000F10A0000050F0000D5
S1134100144700006D460000490D0000FF20404A9E
S1134110F8B5108196208023800110620120DB0510
S113412013600023541DE077941DE077D01DC377FE
S1134130101C0830C37788204003D060101C2C303A
S1134140037053609372D3729362136353639363E4
S1134150D36353611382D376137613775376132084
S11341605377131C90762D33103818700B79141C68
S1134170022B01D13E3393724B79012B03D0022BD6
S113418004D1002301E080239B0123818B79062B3A
S113419003D0072B01D0052B00D1E3724A780D78A8
S11341A08B7812022A431B0413431A1CCB78012672
S11341B01B061343236280235B03E360154B2363D5
S11341C0154B636301235B42A363E363134B98477B
S11341D0134D221C2C1C281C1249134B9847134BBB
S11341E098473134281C124F12490022B8472378CB
S11341F0281C3343321C10492370B8470222237809
S1134200281C13432370321C0C490D4B9847F8BDEE
S1134210440C002002001600020017008940000030
S1134220840C002000140042151B000051400000C3
S11342303D1E0000F93F0000A53F000026070020B6
S1134240551E000008B5014B984708BD51400000B9
S113425008B5014B984708BD8940000002B4714677
S113426049084900095C49008E4402BC7047C046B5
S1134270002243088B4274D303098B425FD3030AA1
S11342808B4244D3030B8B4228D3030C8B420DD3B4
S1134290FF22090212BA030C8B4202D31212090242
S11342A065D0030B8B4219D300E0090AC30B8B4280
S11342B001D3CB03C01A5241830B8B4201D38B032E
S11342C0C01A5241430B8B4201D34B03C01A5241D3
S11342D0030B8B4201D30B03C01A5241C30A8B4216
S11342E001D3CB02C01A5241830A8B4201D38B0201
S11342F0C01A5241430A8B4201D34B02C01A5241A5
S1134300030A8B4201D30B02C01A5241CDD2C30916
S11343108B4201D3CB01C01A524183098B4201D392
S11343208B01C01A524143098B4201D34B01C01A7D
S1134330524103098B4201D30B01C01A5241C308F5
S11343408B4201D3CB00C01A524183088B4201D364
S11343508B00C01A524143088B4201D34B00C01A50
S11343605241411A00D20146524110467047FFE7BC
S113437001B5002000F0FCF802BDC0460029F7D0CA
S113438003B5FFF775FF0EBC4243891A1847C046B0
S113439003460B437FD4002243088B4274D30309A2
S11343A08B425FD3030A8B4244D3030B8B4228D343
S11343B0030C8B420DD3FF22090212BA030C8B4269
S11343C002D31212090265D0030B8B4219D300E009
S11343D0090AC30B8B4201D3CB03C01A5241830B8E
S11343E08B4201D38B03C01A5241430B8B4201D33E
S11343F04B03C01A5241030B8B4201D30B03C01A67
S11344005241C30A8B4201D3CB02C01A5241830AE0
S11344108B4201D38B02C01A5241430A8B4201D30F
S11344204B02C01A5241030A8B4201D30B02C01A39
S11344305241CDD2C3098B4201D3CB01C01A5241A0
S113444083098B4201D38B01C01A524143098B4229
S113445001D34B01C01A524103098B4201D30B0112
S1134460C01A5241C3088B4201D3CB00C01A524137
S113447083088B4201D38B00C01A524143088B42FC
S113448001D34B00C01A5241411A00D20146524195
S1134490104670475DE0CA0F00D04942031000D3B4
S11344A04042534000229C4603098B422DD3030A09
S11344B08B4212D3FC22890112BA030A8B420CD319
S11344C0890192118B4208D3890192118B4204D342
S11344D089013AD0921100E08909C3098B4201D3C2
S11344E0CB01C01A524183098B4201D38B01C01AFC
S11344F0524143098B4201D34B01C01A5241030973
S11345008B4201D30B01C01A5241C3088B4201D321
S1134510CB00C01A524183088B4201D38B00C01ACE
S11345205241D9D243088B4201D34B00C01A5241A5
S1134530411A00D20146634652415B10104601D332
S11345404042002B00D54942704763465B1000D3BC
S1134550404201B5002000F00BF802BD0029F8D05C
S113456003B5FFF715FF0EBC4243891A1847C0462E
S11345707047C0469140031C90409C46203A9340AB
S1134580194352426346D34019437047414208409D
S11345901C2101231B04984201D3000C10391B0A6F
S11345A0984201D3000A08391B09984201D3000933
S11345B0043902A2105C401A7047C0461B1C1D1D22
S11345C01E1E1E1E1F1F1F1F1F1F1F1FF0B54F463D
S11345D0464605042D0C2C1CC0B41704160C3F0CC5
S11345E09946030C7C4375435F4373437D19260C42
S11345F0AD199C46AF4203D980235B029846C4445C
S11346004B465143434324042E0C240C2D0466448E
S11346102C1959188919201C0CBC90469946F0BDD8
S11346200E4B70B500251E1C0D4CE41AA410A542B7
S113463004D0AB00F35898470135F8E700F07CF854
S1134640084B00251E1C084CE41AA410A54204D0F3
S1134650AB00F35898470135F8E770BD44470000B4
S1134660444700004447000048470000002310B5B9
S1134670934203D0CC5CC4540133F9E710BD031C4E
S11346808218934202D019700133FAE77047000090
S113469002000000030000002800000029000000C0
S11346A004000000050000000600000007000000F0
S11346B02000000021000000220000002300000070
S11346C02400000025000000260000002700000050
S11346D008000000090000000A0000000B000000B0
S11346E000080042000C0042001000420014004286
S11346F000180042001C0042090A0B0C0D0E0003B6
S113470002010400080070008000010000010002A2
S1134710030C1060496E76616C6964206461746195
S1134720206C656E6774682C746F6F206D75636898
S11347302064617461210000F8B5C046F8BC08BC6F
S11347409E467047DD000000F8B5C046F8BC08BCC2
S10B47509E467047B50000000D
S1134758B10B000095070000790700007D070000F1
S113476855090000D507000069070000450A000044
S11347787D07000000000000050F0C00010710026F
S113478802000000500000204800002028000020FB
S113479814000020000000206400002040000020D5
S11347A81201010202000040EB030424000101028B
S11347B80001000009024300020100C0320904009C
S11347C8000102020100052400100104240202056C
S11347D82406000105240103010705830340001092
S11347E809040100020A00000007058102400000D4
S11347F80705020240000043444320566972747559
S1134808616C20436F6D0041544D454C2041534623
S11348180000000000030000000000000000000089
S1134828000000000000000000000000000000007C
S10F48380000000004030904010000005B
S9033D615E
